{
  "contractName": "DiplomaRegistry",
  "abi": [
    {
      "inputs": [
        {
          "internalType": "address",
          "name": "_universityRegistryAddress",
          "type": "address"
        }
      ],
      "payable": false,
      "stateMutability": "nonpayable",
      "type": "constructor"
    },
    {
      "anonymous": false,
      "inputs": [
        {
          "indexed": false,
          "internalType": "uint256",
          "name": "id",
          "type": "uint256"
        },
        {
          "indexed": false,
          "internalType": "string",
          "name": "studentName",
          "type": "string"
        },
        {
          "indexed": false,
          "internalType": "string",
          "name": "degree",
          "type": "string"
        },
        {
          "indexed": false,
          "internalType": "string",
          "name": "ipfsHash",
          "type": "string"
        }
      ],
      "name": "DiplomaAdded",
      "type": "event"
    },
    {
      "anonymous": false,
      "inputs": [
        {
          "indexed": false,
          "internalType": "uint256",
          "name": "id",
          "type": "uint256"
        },
        {
          "indexed": false,
          "internalType": "bool",
          "name": "isValid",
          "type": "bool"
        }
      ],
      "name": "DiplomaStatusChanged",
      "type": "event"
    },
    {
      "constant": true,
      "inputs": [],
      "name": "diplomaCount",
      "outputs": [
        {
          "internalType": "uint256",
          "name": "",
          "type": "uint256"
        }
      ],
      "payable": false,
      "stateMutability": "view",
      "type": "function"
    },
    {
      "constant": true,
      "inputs": [
        {
          "internalType": "uint256",
          "name": "",
          "type": "uint256"
        }
      ],
      "name": "diplomas",
      "outputs": [
        {
          "internalType": "uint256",
          "name": "id",
          "type": "uint256"
        },
        {
          "internalType": "string",
          "name": "studentName",
          "type": "string"
        },
        {
          "internalType": "string",
          "name": "degree",
          "type": "string"
        },
        {
          "internalType": "bool",
          "name": "isValid",
          "type": "bool"
        },
        {
          "internalType": "string",
          "name": "ipfsHash",
          "type": "string"
        },
        {
          "internalType": "address",
          "name": "registeredBy",
          "type": "address"
        }
      ],
      "payable": false,
      "stateMutability": "view",
      "type": "function"
    },
    {
      "constant": true,
      "inputs": [],
      "name": "universityRegistry",
      "outputs": [
        {
          "internalType": "contract UniversityRegistry",
          "name": "",
          "type": "address"
        }
      ],
      "payable": false,
      "stateMutability": "view",
      "type": "function"
    },
    {
      "constant": false,
      "inputs": [
        {
          "internalType": "string",
          "name": "_studentName",
          "type": "string"
        },
        {
          "internalType": "string",
          "name": "_degree",
          "type": "string"
        },
        {
          "internalType": "string",
          "name": "_ipfsHash",
          "type": "string"
        }
      ],
      "name": "addDiploma",
      "outputs": [],
      "payable": false,
      "stateMutability": "nonpayable",
      "type": "function"
    },
    {
      "constant": false,
      "inputs": [
        {
          "internalType": "uint256",
          "name": "_id",
          "type": "uint256"
        }
      ],
      "name": "invalidateDiploma",
      "outputs": [],
      "payable": false,
      "stateMutability": "nonpayable",
      "type": "function"
    },
    {
      "constant": false,
      "inputs": [
        {
          "internalType": "uint256",
          "name": "_id",
          "type": "uint256"
        }
      ],
      "name": "validateDiploma",
      "outputs": [],
      "payable": false,
      "stateMutability": "nonpayable",
      "type": "function"
    },
    {
      "constant": true,
      "inputs": [
        {
          "internalType": "address",
          "name": "universityAddr",
          "type": "address"
        }
      ],
      "name": "getDiplomasByUniversity",
      "outputs": [
        {
          "components": [
            {
              "internalType": "uint256",
              "name": "id",
              "type": "uint256"
            },
            {
              "internalType": "string",
              "name": "studentName",
              "type": "string"
            },
            {
              "internalType": "string",
              "name": "degree",
              "type": "string"
            },
            {
              "internalType": "bool",
              "name": "isValid",
              "type": "bool"
            },
            {
              "internalType": "string",
              "name": "ipfsHash",
              "type": "string"
            },
            {
              "internalType": "address",
              "name": "registeredBy",
              "type": "address"
            }
          ],
          "internalType": "struct DiplomaRegistry.Diploma[]",
          "name": "",
          "type": "tuple[]"
        }
      ],
      "payable": false,
      "stateMutability": "view",
      "type": "function"
    }
  ],
  "bytecode": "0x608060405234801561001057600080fd5b506040516200122a3803806200122a83398101604081905261003191610067565b600080546001600160a01b0319166001600160a01b03929092169190911790556100b5565b80516100618161009e565b92915050565b60006020828403121561007957600080fd5b60006100858484610056565b949350505050565b60006001600160a01b038216610061565b6100a78161008d565b81146100b257600080fd5b50565b61116580620000c56000396000f3fe608060405234801561001057600080fd5b506004361061007d5760003560e01c806358a1a9511161005b57806358a1a951146100e55780636920613f146100fa578063d67146b51461010f578063e9ef40f7146101225761007d565b8063129005571461008257806335dfc1c3146100ab57806336b1d37f146100d0575b600080fd5b610095610090366004610bc9565b610135565b6040516100a29190610efa565b60405180910390f35b6100be6100b9366004610cd5565b61041a565b6040516100a296959493929190610fb4565b6100d86105fc565b6040516100a29190610f0b565b6100f86100f3366004610c41565b61060b565b005b6101026107dc565b6040516100a29190610f39565b6100f861011d366004610cd5565b6107e2565b6100f8610130366004610cd5565b610910565b6060600060015b6002548111610179576000818152600160205260409020600501546001600160a01b0385811691161415610171576001909101905b60010161013c565b506060816040519080825280602002602001820160405280156101b657816020015b6101a3610a2c565b81526020019060019003908161019b5790505b509050600060015b6002548111610410576000818152600160205260409020600501546001600160a01b038781169116141561040857600081815260016020818152604092839020835160c0810185528154815281840180548651600296821615610100026000190190911695909504601f810185900485028601850190965285855290949193858401939092908301828280156102955780601f1061026a57610100808354040283529160200191610295565b820191906000526020600020905b81548152906001019060200180831161027857829003601f168201915b5050509183525050600282810180546040805160206001841615610100026000190190931694909404601f810183900483028501830190915280845293810193908301828280156103275780601f106102fc57610100808354040283529160200191610327565b820191906000526020600020905b81548152906001019060200180831161030a57829003601f168201915b5050509183525050600382015460ff16151560208083019190915260048301805460408051601f600260001960018616156101000201909416939093049283018590048502810185018252828152940193928301828280156103ca5780601f1061039f576101008083540402835291602001916103ca565b820191906000526020600020905b8154815290600101906020018083116103ad57829003601f168201915b5050509183525050600591909101546001600160a01b031660209091015283518490849081106103f657fe5b60209081029190910101526001909101905b6001016101be565b5090949350505050565b600160208181526000928352604092839020805481840180548651600296821615610100026000190190911695909504601f810185900485028601850190965285855290949193929091908301828280156104b65780601f1061048b576101008083540402835291602001916104b6565b820191906000526020600020905b81548152906001019060200180831161049957829003601f168201915b50505060028085018054604080516020601f60001961010060018716150201909416959095049283018590048502810185019091528181529596959450909250908301828280156105485780601f1061051d57610100808354040283529160200191610548565b820191906000526020600020905b81548152906001019060200180831161052b57829003601f168201915b50505050600383015460048401805460408051602060026101006001861615026000190190941693909304601f8101849004840282018401909252818152959660ff90941695939450908301828280156105e35780601f106105b8576101008083540402835291602001916105e3565b820191906000526020600020905b8154815290600101906020018083116105c657829003601f168201915b505050600590930154919250506001600160a01b031686565b6000546001600160a01b031681565b60008054604051635cb9866f60e11b81526001600160a01b039091169063b9730cde9061063c903390600401610eec565b60006040518083038186803b15801561065457600080fd5b505afa158015610668573d6000803e3d6000fd5b505050506040513d6000823e601f3d908101601f191682016040526106909190810190610bef565b509050806106b95760405162461bcd60e51b81526004016106b090610f19565b60405180910390fd5b600280546001908101918290556040805160c081018252838152602080820189815282840189905260608301859052608083018890523360a084015260009586528482529290942081518155915180519194929361071d9390850192910190610a6d565b5060408201518051610739916002840191602090910190610a6d565b50606082015160038201805460ff19169115159190911790556080820151805161076d916004840191602090910190610a6d565b5060a09190910151600590910180546001600160a01b0319166001600160a01b039092169190911790556002546040517fc3de4a8e4f7f01fbc0167cdc7bacf45ea3f32b60bdb8842fe5ef7c799ce536f2916107ce91879087908790610f62565b60405180910390a150505050565b60025481565b60008054604051635cb9866f60e11b81526001600160a01b039091169063b9730cde90610813903390600401610eec565b60006040518083038186803b15801561082b57600080fd5b505afa15801561083f573d6000803e3d6000fd5b505050506040513d6000823e601f3d908101601f191682016040526108679190810190610bef565b509050806108875760405162461bcd60e51b81526004016106b090610f19565b60008211801561089957506002548211155b6108b55760405162461bcd60e51b81526004016106b090610f29565b600082815260016020819052604091829020600301805460ff19168217905590517fc9a825637a612168df98682200df410fa2c0325338b628326e214cc2d67a06409161090491859190610f47565b60405180910390a15050565b60008054604051635cb9866f60e11b81526001600160a01b039091169063b9730cde90610941903390600401610eec565b60006040518083038186803b15801561095957600080fd5b505afa15801561096d573d6000803e3d6000fd5b505050506040513d6000823e601f3d908101601f191682016040526109959190810190610bef565b509050806109b55760405162461bcd60e51b81526004016106b090610f19565b6000821180156109c757506002548211155b6109e35760405162461bcd60e51b81526004016106b090610f29565b600082815260016020526040808220600301805460ff19169055517fc9a825637a612168df98682200df410fa2c0325338b628326e214cc2d67a06409161090491859190610f47565b6040518060c001604052806000815260200160608152602001606081526020016000151581526020016060815260200160006001600160a01b031681525090565b828054600181600116156101000203166002900490600052602060002090601f016020900481019282601f10610aae57805160ff1916838001178555610adb565b82800160010185558215610adb579182015b82811115610adb578251825591602001919060010190610ac0565b50610ae7929150610aeb565b5090565b610b0591905b80821115610ae75760008155600101610af1565b90565b8035610b13816110f9565b92915050565b8051610b1381611110565b600082601f830112610b3557600080fd5b8135610b48610b438261104a565b611023565b91508082526020830160208301858383011115610b6457600080fd5b610b6f8382846110b3565b50505092915050565b600082601f830112610b8957600080fd5b8151610b97610b438261104a565b91508082526020830160208301858383011115610bb357600080fd5b610b6f8382846110bf565b8035610b1381611119565b600060208284031215610bdb57600080fd5b6000610be78484610b08565b949350505050565b60008060408385031215610c0257600080fd5b6000610c0e8585610b19565b925050602083015167ffffffffffffffff811115610c2b57600080fd5b610c3785828601610b78565b9150509250929050565b600080600060608486031215610c5657600080fd5b833567ffffffffffffffff811115610c6d57600080fd5b610c7986828701610b24565b935050602084013567ffffffffffffffff811115610c9657600080fd5b610ca286828701610b24565b925050604084013567ffffffffffffffff811115610cbf57600080fd5b610ccb86828701610b24565b9150509250925092565b600060208284031215610ce757600080fd5b6000610be78484610bbe565b6000610cff8383610e53565b9392505050565b610d0f816110a1565b82525050565b610d0f81611085565b6000610d2982611078565b610d33818561107c565b935083602082028501610d4585611072565b8060005b85811015610d7f5784840389528151610d628582610cf3565b9450610d6d83611072565b60209a909a0199925050600101610d49565b5091979650505050505050565b610d0f81611090565b610d0f816110a8565b6000610da982611078565b610db3818561107c565b9350610dc38185602086016110bf565b610dcc816110ef565b9093019392505050565b6000610de3602d8361107c565b7f536164656365206b617969746c6920756e69766572736974652062752069736c81526c32b6b4903cb0b830b134b634b960991b602082015260400192915050565b6000610e3260128361107c565b714469706c6f6d612062756c756e616d61646960701b815260200192915050565b805160009060c0840190610e678582610ee3565b5060208301518482036020860152610e7f8282610d9e565b91505060408301518482036040860152610e998282610d9e565b9150506060830151610eae6060860182610d8c565b5060808301518482036080860152610ec68282610d9e565b91505060a0830151610edb60a0860182610d15565b509392505050565b610d0f81610b05565b60208101610b138284610d06565b60208082528101610cff8184610d1e565b60208101610b138284610d95565b60208082528101610b1381610dd6565b60208082528101610b1381610e25565b60208101610b138284610ee3565b60408101610f558285610ee3565b610cff6020830184610d8c565b60808101610f708287610ee3565b8181036020830152610f828186610d9e565b90508181036040830152610f968185610d9e565b90508181036060830152610faa8184610d9e565b9695505050505050565b60c08101610fc28289610ee3565b8181036020830152610fd48188610d9e565b90508181036040830152610fe88187610d9e565b9050610ff76060830186610d8c565b81810360808301526110098185610d9e565b905061101860a0830184610d15565b979650505050505050565b60405181810167ffffffffffffffff8111828210171561104257600080fd5b604052919050565b600067ffffffffffffffff82111561106157600080fd5b506020601f91909101601f19160190565b60200190565b5190565b90815260200190565b6000610b1382611095565b151590565b6001600160a01b031690565b6000610b13825b6000610b1382611085565b82818337506000910152565b60005b838110156110da5781810151838201526020016110c2565b838111156110e9576000848401525b50505050565b601f01601f191690565b61110281611085565b811461110d57600080fd5b50565b61110281611090565b61110281610b0556fea365627a7a723158201bcef8e89fabd42a391e369637dd861eb292c71a320d356b1c5b5fd8046094146c6578706572696d656e74616cf564736f6c63430005100040",
  "source": "// SPDX-License-Identifier: MIT\r\npragma solidity >=0.4.22 <0.9.0;\r\npragma experimental ABIEncoderV2;\r\n/*\r\n    Diploma Kayıt Kontratı:\r\n    - Bu kontrat, üniversiteler tarafından oluşturulan diplomaları saklar.\r\n    - Sadece kayıtlı üniversiteler diploma ekleyebilir, geçerlilik durumunu değiştirebilir.\r\n    - Yeni eklenen ipfsHash alanı, IPFS üzerinde saklanan diploma PDF dosyasının hash değerini tutar.\r\n*/\r\nimport \"./UniversityRegistry.sol\";\r\n\r\ncontract DiplomaRegistry {\r\n    // UniversityRegistry kontratına referans\r\n    UniversityRegistry public universityRegistry;\r\n\r\n    // Diploma bilgilerini tutan yapı\r\n    struct Diploma {\r\n        uint id;\r\n        string studentName;\r\n        string degree;\r\n        bool isValid;\r\n        string ipfsHash;\r\n        address registeredBy;\r\n    }\r\n\r\n    // Diplomalari saklamak için mapping\r\n    mapping(uint => Diploma) public diplomas;\r\n    uint public diplomaCount;\r\n\r\n    // Diploma ekleme ve durum değişikliği eventleri\r\n    event DiplomaAdded(uint id,string studentName,string degree,string ipfsHash);\r\n    event DiplomaStatusChanged(uint id, bool isValid);\r\n\r\n    // Sadece kayıtlı üniversitelerin işlem yapabilmesi için modifier\r\n    modifier onlyUniversity() {\r\n        (bool exists, ) = universityRegistry.isUniversity(msg.sender);\r\n        require(exists, \"Sadece kayitli universite bu islemi yapabilir\");\r\n        _;\r\n    }\r\n\r\n    // DiplomaRegistry kontratı deploy edilirken UniversityRegistry kontratının adresi verilmelidir.\r\n    constructor(address _universityRegistryAddress) public {\r\n        universityRegistry = UniversityRegistry(_universityRegistryAddress);\r\n    }\r\n\r\n    // Yeni diploma ekleme fonksiyonu (sadece kayıtlı üniversiteler tarafından çağrılabilir)\r\n    function addDiploma(string memory _studentName,string memory _degree,string memory _ipfsHash) public onlyUniversity {\r\n        diplomaCount++;\r\n        diplomas[diplomaCount] = Diploma({\r\n            id: diplomaCount,\r\n            studentName: _studentName,\r\n            degree: _degree,\r\n            isValid: true,\r\n            ipfsHash: _ipfsHash,\r\n            registeredBy: msg.sender // Ekleyen üniversitenin adresini kaydediyoruz\r\n        });\r\n        emit DiplomaAdded(diplomaCount, _studentName, _degree, _ipfsHash);\r\n    }\r\n\r\n    // Belirtilen diplomanın geçerliliğini iptal eder (sadece kayıtlı üniversiteler)\r\n    function invalidateDiploma(uint _id) public onlyUniversity {\r\n        require(_id > 0 && _id <= diplomaCount, \"Diploma bulunamadi\");\r\n        diplomas[_id].isValid = false;\r\n        emit DiplomaStatusChanged(_id, false);\r\n    }\r\n\r\n    // Belirtilen diplomanın geçerli olduğunu onaylar (sadece kayıtlı üniversiteler)\r\n    function validateDiploma(uint _id) public onlyUniversity {\r\n        require(_id > 0 && _id <= diplomaCount, \"Diploma bulunamadi\");\r\n        diplomas[_id].isValid = true;\r\n        emit DiplomaStatusChanged(_id, true);\r\n    }\r\n\r\n    // Sadece çağıran üniversite tarafından eklenmiş diplomaları döndürür\r\n    function getDiplomasByUniversity(address universityAddr) public view returns (Diploma[] memory) {\r\n        uint count = 0;\r\n        for (uint i = 1; i <= diplomaCount; i++) {\r\n            if (diplomas[i].registeredBy == universityAddr) {\r\n                count++;\r\n            }\r\n        }\r\n        Diploma[] memory result = new Diploma[](count);\r\n        uint index = 0;\r\n        for (uint i = 1; i <= diplomaCount; i++) {\r\n            if (diplomas[i].registeredBy == universityAddr) {\r\n                result[index] = diplomas[i];\r\n                index++;\r\n            }\r\n        }\r\n        return result;\r\n    }\r\n}\r\n",
  "sourcePath": "C:\\Users\\Metehan\\Desktop\\DiplomaVerification\\Diploma-Verification\\contracts\\DiplomaRegistry.sol",
  "compiler": {
    "name": "solc",
    "version": "0.5.16+commit.9c3226ce.Emscripten.clang"
  },
  "schemaVersion": "3.4.16",
  "updatedAt": "2025-04-12T17:43:11.230Z",
  "networkType": "ethereum",
  "devdoc": {
    "methods": {}
  },
  "userdoc": {
    "methods": {}
  }
}