{
  "contractName": "DiplomaRegistry",
  "abi": [
    {
      "inputs": [
        {
          "internalType": "address",
          "name": "_universityRegistryAddress",
          "type": "address"
        }
      ],
      "payable": false,
      "stateMutability": "nonpayable",
      "type": "constructor"
    },
    {
      "anonymous": false,
      "inputs": [
        {
          "indexed": false,
          "internalType": "uint256",
          "name": "id",
          "type": "uint256"
        },
        {
          "indexed": false,
          "internalType": "string",
          "name": "studentName",
          "type": "string"
        },
        {
          "indexed": false,
          "internalType": "string",
          "name": "degree",
          "type": "string"
        },
        {
          "indexed": false,
          "internalType": "string",
          "name": "ipfsHash",
          "type": "string"
        }
      ],
      "name": "DiplomaAdded",
      "type": "event"
    },
    {
      "anonymous": false,
      "inputs": [
        {
          "indexed": false,
          "internalType": "uint256",
          "name": "id",
          "type": "uint256"
        },
        {
          "indexed": false,
          "internalType": "bool",
          "name": "isValid",
          "type": "bool"
        }
      ],
      "name": "DiplomaStatusChanged",
      "type": "event"
    },
    {
      "constant": true,
      "inputs": [],
      "name": "diplomaCount",
      "outputs": [
        {
          "internalType": "uint256",
          "name": "",
          "type": "uint256"
        }
      ],
      "payable": false,
      "stateMutability": "view",
      "type": "function"
    },
    {
      "constant": true,
      "inputs": [
        {
          "internalType": "uint256",
          "name": "",
          "type": "uint256"
        }
      ],
      "name": "diplomas",
      "outputs": [
        {
          "internalType": "uint256",
          "name": "id",
          "type": "uint256"
        },
        {
          "internalType": "string",
          "name": "studentName",
          "type": "string"
        },
        {
          "internalType": "string",
          "name": "degree",
          "type": "string"
        },
        {
          "internalType": "bool",
          "name": "isValid",
          "type": "bool"
        },
        {
          "internalType": "string",
          "name": "ipfsHash",
          "type": "string"
        },
        {
          "internalType": "address",
          "name": "registeredBy",
          "type": "address"
        }
      ],
      "payable": false,
      "stateMutability": "view",
      "type": "function"
    },
    {
      "constant": true,
      "inputs": [],
      "name": "universityRegistry",
      "outputs": [
        {
          "internalType": "contract UniversityRegistry",
          "name": "",
          "type": "address"
        }
      ],
      "payable": false,
      "stateMutability": "view",
      "type": "function"
    },
    {
      "constant": false,
      "inputs": [
        {
          "internalType": "string",
          "name": "_studentName",
          "type": "string"
        },
        {
          "internalType": "string",
          "name": "_degree",
          "type": "string"
        },
        {
          "internalType": "string",
          "name": "_ipfsHash",
          "type": "string"
        }
      ],
      "name": "addDiploma",
      "outputs": [],
      "payable": false,
      "stateMutability": "nonpayable",
      "type": "function"
    },
    {
      "constant": false,
      "inputs": [
        {
          "internalType": "address",
          "name": "_universityAddress",
          "type": "address"
        },
        {
          "internalType": "string",
          "name": "_studentName",
          "type": "string"
        },
        {
          "internalType": "string",
          "name": "_degree",
          "type": "string"
        },
        {
          "internalType": "string",
          "name": "_ipfsHash",
          "type": "string"
        }
      ],
      "name": "addDiplomaFor",
      "outputs": [],
      "payable": false,
      "stateMutability": "nonpayable",
      "type": "function"
    },
    {
      "constant": false,
      "inputs": [
        {
          "internalType": "uint256",
          "name": "_id",
          "type": "uint256"
        }
      ],
      "name": "invalidateDiploma",
      "outputs": [],
      "payable": false,
      "stateMutability": "nonpayable",
      "type": "function"
    },
    {
      "constant": false,
      "inputs": [
        {
          "internalType": "uint256",
          "name": "_id",
          "type": "uint256"
        }
      ],
      "name": "validateDiploma",
      "outputs": [],
      "payable": false,
      "stateMutability": "nonpayable",
      "type": "function"
    },
    {
      "constant": true,
      "inputs": [
        {
          "internalType": "address",
          "name": "universityAddr",
          "type": "address"
        }
      ],
      "name": "getDiplomasByUniversity",
      "outputs": [
        {
          "components": [
            {
              "internalType": "uint256",
              "name": "id",
              "type": "uint256"
            },
            {
              "internalType": "string",
              "name": "studentName",
              "type": "string"
            },
            {
              "internalType": "string",
              "name": "degree",
              "type": "string"
            },
            {
              "internalType": "bool",
              "name": "isValid",
              "type": "bool"
            },
            {
              "internalType": "string",
              "name": "ipfsHash",
              "type": "string"
            },
            {
              "internalType": "address",
              "name": "registeredBy",
              "type": "address"
            }
          ],
          "internalType": "struct DiplomaRegistry.Diploma[]",
          "name": "",
          "type": "tuple[]"
        }
      ],
      "payable": false,
      "stateMutability": "view",
      "type": "function"
    }
  ],
  "bytecode": "0x60806040523480156200001157600080fd5b506040516200190e3803806200190e83398101604081905262000034916200006d565b600080546001600160a01b0319166001600160a01b0392909216919091179055620000c2565b80516200006781620000a8565b92915050565b6000602082840312156200008057600080fd5b60006200008e84846200005a565b949350505050565b60006001600160a01b03821662000067565b620000b38162000096565b8114620000bf57600080fd5b50565b61183c80620000d26000396000f3fe608060405234801561001057600080fd5b50600436106100885760003560e01c80636920613f1161005b5780636920613f14610105578063c0be37111461011a578063d67146b51461012d578063e9ef40f71461014057610088565b8063129005571461008d57806335dfc1c3146100b657806336b1d37f146100db57806358a1a951146100f0575b600080fd5b6100a061009b3660046110d0565b610153565b6040516100ad9190611581565b60405180910390f35b6100c96100c43660046112a3565b610438565b6040516100ad9695949392919061166b565b6100e361061a565b6040516100ad9190611592565b6101036100fe36600461120f565b610629565b005b61010d6107fa565b6040516100ad91906115f0565b610103610128366004611114565b610800565b61010361013b3660046112a3565b610a87565b61010361014e3660046112a3565b610ceb565b6060600060015b6002548111610197576000818152600160205260409020600501546001600160a01b038581169116141561018f576001909101905b60010161015a565b506060816040519080825280602002602001820160405280156101d457816020015b6101c1610f28565b8152602001906001900390816101b95790505b509050600060015b600254811161042e576000818152600160205260409020600501546001600160a01b038781169116141561042657600081815260016020818152604092839020835160c0810185528154815281840180548651600296821615610100026000190190911695909504601f810185900485028601850190965285855290949193858401939092908301828280156102b35780601f10610288576101008083540402835291602001916102b3565b820191906000526020600020905b81548152906001019060200180831161029657829003601f168201915b5050509183525050600282810180546040805160206001841615610100026000190190931694909404601f810183900483028501830190915280845293810193908301828280156103455780601f1061031a57610100808354040283529160200191610345565b820191906000526020600020905b81548152906001019060200180831161032857829003601f168201915b5050509183525050600382015460ff16151560208083019190915260048301805460408051601f600260001960018616156101000201909416939093049283018590048502810185018252828152940193928301828280156103e85780601f106103bd576101008083540402835291602001916103e8565b820191906000526020600020905b8154815290600101906020018083116103cb57829003601f168201915b5050509183525050600591909101546001600160a01b0316602090910152835184908490811061041457fe5b60209081029190910101526001909101905b6001016101dc565b5090949350505050565b600160208181526000928352604092839020805481840180548651600296821615610100026000190190911695909504601f810185900485028601850190965285855290949193929091908301828280156104d45780601f106104a9576101008083540402835291602001916104d4565b820191906000526020600020905b8154815290600101906020018083116104b757829003601f168201915b50505060028085018054604080516020601f60001961010060018716150201909416959095049283018590048502810185019091528181529596959450909250908301828280156105665780601f1061053b57610100808354040283529160200191610566565b820191906000526020600020905b81548152906001019060200180831161054957829003601f168201915b50505050600383015460048401805460408051602060026101006001861615026000190190941693909304601f8101849004840282018401909252818152959660ff90941695939450908301828280156106015780601f106105d657610100808354040283529160200191610601565b820191906000526020600020905b8154815290600101906020018083116105e457829003601f168201915b505050600590930154919250506001600160a01b031686565b6000546001600160a01b031681565b60008054604051635cb9866f60e11b81526001600160a01b039091169063b9730cde9061065a903390600401611573565b60006040518083038186803b15801561067257600080fd5b505afa158015610686573d6000803e3d6000fd5b505050506040513d6000823e601f3d908101601f191682016040526106ae91908101906111bd565b509050806106d75760405162461bcd60e51b81526004016106ce906115b0565b60405180910390fd5b600280546001908101918290556040805160c081018252838152602080820189815282840189905260608301859052608083018890523360a084015260009586528482529290942081518155915180519194929361073b9390850192910190610f69565b5060408201518051610757916002840191602090910190610f69565b50606082015160038201805460ff19169115159190911790556080820151805161078b916004840191602090910190610f69565b5060a09190910151600590910180546001600160a01b0319166001600160a01b039092169190911790556002546040517fc3de4a8e4f7f01fbc0167cdc7bacf45ea3f32b60bdb8842fe5ef7c799ce536f2916107ec91879087908790611619565b60405180910390a150505050565b60025481565b6000809054906101000a90046001600160a01b03166001600160a01b0316638da5cb5b6040518163ffffffff1660e01b815260040160206040518083038186803b15801561084d57600080fd5b505afa158015610861573d6000803e3d6000fd5b505050506040513d601f19601f8201168201806040525061088591908101906110f6565b6001600160a01b0316336001600160a01b0316146108b55760405162461bcd60e51b81526004016106ce906115d0565b60008054604051635cb9866f60e11b81526001600160a01b039091169063b9730cde906108e6908890600401611565565b60006040518083038186803b1580156108fe57600080fd5b505afa158015610912573d6000803e3d6000fd5b505050506040513d6000823e601f3d908101601f1916820160405261093a91908101906111bd565b5090508061095a5760405162461bcd60e51b81526004016106ce906115c0565b600280546001908101918290556040805160c081018252838152602080820189815282840189905260608301859052608083018890526001600160a01b038b1660a08401526000958652848252929094208151815591518051919492936109c79390850192910190610f69565b50604082015180516109e3916002840191602090910190610f69565b50606082015160038201805460ff191691151591909117905560808201518051610a17916004840191602090910190610f69565b5060a09190910151600590910180546001600160a01b0319166001600160a01b039092169190911790556002546040517fc3de4a8e4f7f01fbc0167cdc7bacf45ea3f32b60bdb8842fe5ef7c799ce536f291610a7891879087908790611619565b60405180910390a15050505050565b60005460408051638da5cb5b60e01b8152905183926001600160a01b031691638da5cb5b916004808301926020929190829003018186803b158015610acb57600080fd5b505afa158015610adf573d6000803e3d6000fd5b505050506040513d601f19601f82011682018060405250610b0391908101906110f6565b6001600160a01b0316336001600160a01b03161415610b9457600082118015610b2e57506002548211155b610b4a5760405162461bcd60e51b81526004016106ce906115e0565b600082815260016020819052604091829020600301805460ff19168217905590516000805160206117da83398151915291610b87918591906115fe565b60405180910390a1610ce7565b60008054604051635cb9866f60e11b81526001600160a01b039091169063b9730cde90610bc5903390600401611573565b60006040518083038186803b158015610bdd57600080fd5b505afa158015610bf1573d6000803e3d6000fd5b505050506040513d6000823e601f3d908101601f19168201604052610c1991908101906111bd565b50905080610c395760405162461bcd60e51b81526004016106ce906115b0565b6000828152600160205260409020600501546001600160a01b03163314610c725760405162461bcd60e51b81526004016106ce906115a0565b600083118015610c8457506002548311155b610ca05760405162461bcd60e51b81526004016106ce906115e0565b600083815260016020819052604091829020600301805460ff19168217905590516000805160206117da83398151915291610cdd918691906115fe565b60405180910390a1505b5050565b60005460408051638da5cb5b60e01b8152905183926001600160a01b031691638da5cb5b916004808301926020929190829003018186803b158015610d2f57600080fd5b505afa158015610d43573d6000803e3d6000fd5b505050506040513d601f19601f82011682018060405250610d6791908101906110f6565b6001600160a01b0316336001600160a01b03161415610de557600082118015610d9257506002548211155b610dae5760405162461bcd60e51b81526004016106ce906115e0565b600082815260016020526040808220600301805460ff19169055516000805160206117da83398151915291610b87918591906115fe565b60008054604051635cb9866f60e11b81526001600160a01b039091169063b9730cde90610e16903390600401611573565b60006040518083038186803b158015610e2e57600080fd5b505afa158015610e42573d6000803e3d6000fd5b505050506040513d6000823e601f3d908101601f19168201604052610e6a91908101906111bd565b50905080610e8a5760405162461bcd60e51b81526004016106ce906115b0565b6000828152600160205260409020600501546001600160a01b03163314610ec35760405162461bcd60e51b81526004016106ce906115a0565b600083118015610ed557506002548311155b610ef15760405162461bcd60e51b81526004016106ce906115e0565b600083815260016020526040808220600301805460ff19169055516000805160206117da83398151915291610cdd918691906115fe565b6040518060c001604052806000815260200160608152602001606081526020016000151581526020016060815260200160006001600160a01b031681525090565b828054600181600116156101000203166002900490600052602060002090601f016020900481019282601f10610faa57805160ff1916838001178555610fd7565b82800160010185558215610fd7579182015b82811115610fd7578251825591602001919060010190610fbc565b50610fe3929150610fe7565b5090565b61100191905b80821115610fe35760008155600101610fed565b90565b803561100f816117b0565b92915050565b805161100f816117b0565b805161100f816117c7565b600082601f83011261103c57600080fd5b813561104f61104a82611701565b6116da565b9150808252602083016020830185838301111561106b57600080fd5b61107683828461176a565b50505092915050565b600082601f83011261109057600080fd5b815161109e61104a82611701565b915080825260208301602083018583830111156110ba57600080fd5b611076838284611776565b803561100f816117d0565b6000602082840312156110e257600080fd5b60006110ee8484611004565b949350505050565b60006020828403121561110857600080fd5b60006110ee8484611015565b6000806000806080858703121561112a57600080fd5b60006111368787611004565b945050602085013567ffffffffffffffff81111561115357600080fd5b61115f8782880161102b565b935050604085013567ffffffffffffffff81111561117c57600080fd5b6111888782880161102b565b925050606085013567ffffffffffffffff8111156111a557600080fd5b6111b18782880161102b565b91505092959194509250565b600080604083850312156111d057600080fd5b60006111dc8585611020565b925050602083015167ffffffffffffffff8111156111f957600080fd5b6112058582860161107f565b9150509250929050565b60008060006060848603121561122457600080fd5b833567ffffffffffffffff81111561123b57600080fd5b6112478682870161102b565b935050602084013567ffffffffffffffff81111561126457600080fd5b6112708682870161102b565b925050604084013567ffffffffffffffff81111561128d57600080fd5b6112998682870161102b565b9150509250925092565b6000602082840312156112b557600080fd5b60006110ee84846110c5565b60006112cd83836114cc565b9392505050565b6112dd81611758565b82525050565b6112dd8161173c565b60006112f78261172f565b6113018185611733565b93508360208202850161131385611729565b8060005b8581101561134d578484038952815161133085826112c1565b945061133b83611729565b60209a909a0199925050600101611317565b5091979650505050505050565b6112dd81611747565b6112dd8161175f565b60006113778261172f565b6113818185611733565b9350611391818560208601611776565b61139a816117a6565b9093019392505050565b60006113b1601b83611733565b7f4275206469706c6f6d61207965746b696e697a20646973696e64610000000000815260200192915050565b60006113ea602d83611733565b7f536164656365206b617969746c6920756e69766572736974652062752069736c81526c32b6b4903cb0b830b134b634b960991b602082015260400192915050565b6000611439601883611733565b7f556e69766572736974652074616e696d6c6920646567696c0000000000000000815260200192915050565b6000611472601d83611733565b7f5361646563652061646d696e2069736c656d69207961706162696c6972000000815260200192915050565b60006114ab601283611733565b714469706c6f6d612062756c756e616d61646960701b815260200192915050565b805160009060c08401906114e0858261155c565b50602083015184820360208601526114f8828261136c565b91505060408301518482036040860152611512828261136c565b9150506060830151611527606086018261135a565b506080830151848203608086015261153f828261136c565b91505060a083015161155460a08601826112e3565b509392505050565b6112dd81611001565b6020810161100f82846112e3565b6020810161100f82846112d4565b602080825281016112cd81846112ec565b6020810161100f8284611363565b6020808252810161100f816113a4565b6020808252810161100f816113dd565b6020808252810161100f8161142c565b6020808252810161100f81611465565b6020808252810161100f8161149e565b6020810161100f828461155c565b6040810161160c828561155c565b6112cd602083018461135a565b60808101611627828761155c565b8181036020830152611639818661136c565b9050818103604083015261164d818561136c565b90508181036060830152611661818461136c565b9695505050505050565b60c08101611679828961155c565b818103602083015261168b818861136c565b9050818103604083015261169f818761136c565b90506116ae606083018661135a565b81810360808301526116c0818561136c565b90506116cf60a08301846112e3565b979650505050505050565b60405181810167ffffffffffffffff811182821017156116f957600080fd5b604052919050565b600067ffffffffffffffff82111561171857600080fd5b506020601f91909101601f19160190565b60200190565b5190565b90815260200190565b600061100f8261174c565b151590565b6001600160a01b031690565b600061100f825b600061100f8261173c565b82818337506000910152565b60005b83811015611791578181015183820152602001611779565b838111156117a0576000848401525b50505050565b601f01601f191690565b6117b98161173c565b81146117c457600080fd5b50565b6117b981611747565b6117b98161100156fec9a825637a612168df98682200df410fa2c0325338b628326e214cc2d67a0640a365627a7a72315820d46eafa04c4611f7aefb5ca380681f5b0106b6c520564b51095edef6807467796c6578706572696d656e74616cf564736f6c63430005100040",
  "source": "// SPDX-License-Identifier: MIT\r\npragma solidity >=0.4.22 <0.9.0;\r\npragma experimental ABIEncoderV2;\r\n\r\nimport \"./UniversityRegistry.sol\";\r\n\r\ncontract DiplomaRegistry {\r\n    UniversityRegistry public universityRegistry;\r\n\r\n    struct Diploma {\r\n        uint id;\r\n        string studentName;\r\n        string degree;\r\n        bool isValid;\r\n        string ipfsHash;\r\n        address registeredBy;\r\n    }\r\n\r\n    mapping(uint => Diploma) public diplomas;\r\n    uint public diplomaCount;\r\n\r\n    event DiplomaAdded(\r\n        uint id,\r\n        string studentName,\r\n        string degree,\r\n        string ipfsHash\r\n    );\r\n    event DiplomaStatusChanged(uint id, bool isValid);\r\n\r\n    modifier onlyUniversity() {\r\n        (bool exists, ) = universityRegistry.isUniversity(msg.sender);\r\n        require(exists, \"Sadece kayitli universite bu islemi yapabilir\");\r\n        _;\r\n    }\r\n\r\n    modifier onlyAdmin() {\r\n        require(\r\n            msg.sender == universityRegistry.owner(),\r\n            \"Sadece admin islemi yapabilir\"\r\n        );\r\n        _;\r\n    }\r\n\r\n    modifier onlyAdminOrIssuer(uint _id) {\r\n        if (msg.sender == universityRegistry.owner()) {\r\n            _;\r\n            return;\r\n        }\r\n        (bool uniExists, ) = universityRegistry.isUniversity(msg.sender);\r\n        require(uniExists, \"Sadece kayitli universite bu islemi yapabilir\");\r\n        require(\r\n            diplomas[_id].registeredBy == msg.sender,\r\n            \"Bu diploma yetkiniz disinda\"\r\n        );\r\n        _;\r\n    }\r\n\r\n    constructor(address _universityRegistryAddress) public {\r\n        universityRegistry = UniversityRegistry(_universityRegistryAddress);\r\n    }\r\n\r\n    function addDiploma(\r\n        string memory _studentName,\r\n        string memory _degree,\r\n        string memory _ipfsHash\r\n    ) public onlyUniversity {\r\n        diplomaCount++;\r\n        diplomas[diplomaCount] = Diploma({\r\n            id: diplomaCount,\r\n            studentName: _studentName,\r\n            degree: _degree,\r\n            isValid: true,\r\n            ipfsHash: _ipfsHash,\r\n            registeredBy: msg.sender\r\n        });\r\n        emit DiplomaAdded(diplomaCount, _studentName, _degree, _ipfsHash);\r\n    }\r\n\r\n    function addDiplomaFor(\r\n        address _universityAddress,\r\n        string memory _studentName,\r\n        string memory _degree,\r\n        string memory _ipfsHash\r\n    ) public onlyAdmin {\r\n        (bool exists, ) = universityRegistry.isUniversity(_universityAddress);\r\n        require(exists, \"Universite tanimli degil\");\r\n\r\n        diplomaCount++;\r\n        diplomas[diplomaCount] = Diploma({\r\n            id: diplomaCount,\r\n            studentName: _studentName,\r\n            degree: _degree,\r\n            isValid: true,\r\n            ipfsHash: _ipfsHash,\r\n            registeredBy: _universityAddress\r\n        });\r\n        emit DiplomaAdded(diplomaCount, _studentName, _degree, _ipfsHash);\r\n    }\r\n\r\n    function invalidateDiploma(uint _id) public onlyAdminOrIssuer(_id) {\r\n        require(_id > 0 && _id <= diplomaCount, \"Diploma bulunamadi\");\r\n        diplomas[_id].isValid = false;\r\n        emit DiplomaStatusChanged(_id, false);\r\n    }\r\n\r\n    function validateDiploma(uint _id) public onlyAdminOrIssuer(_id) {\r\n        require(_id > 0 && _id <= diplomaCount, \"Diploma bulunamadi\");\r\n        diplomas[_id].isValid = true;\r\n        emit DiplomaStatusChanged(_id, true);\r\n    }\r\n\r\n    function getDiplomasByUniversity(\r\n        address universityAddr\r\n    ) public view returns (Diploma[] memory) {\r\n        uint count = 0;\r\n        for (uint i = 1; i <= diplomaCount; i++) {\r\n            if (diplomas[i].registeredBy == universityAddr) {\r\n                count++;\r\n            }\r\n        }\r\n        Diploma[] memory result = new Diploma[](count);\r\n        uint index = 0;\r\n        for (uint i = 1; i <= diplomaCount; i++) {\r\n            if (diplomas[i].registeredBy == universityAddr) {\r\n                result[index] = diplomas[i];\r\n                index++;\r\n            }\r\n        }\r\n        return result;\r\n    }\r\n}\r\n",
  "sourcePath": "C:\\Users\\Said\\Desktop\\Bitirme Projesi\\contracts\\DiplomaRegistry.sol",
  "compiler": {
    "name": "solc",
    "version": "0.5.16+commit.9c3226ce.Emscripten.clang"
  },
  "schemaVersion": "3.4.16",
  "updatedAt": "2025-04-26T09:54:48.187Z",
  "networkType": "ethereum",
  "devdoc": {
    "methods": {}
  },
  "userdoc": {
    "methods": {}
  }
}