{
  "contractName": "UniversityRegistry",
  "abi": [
    {
      "inputs": [],
      "payable": false,
      "stateMutability": "nonpayable",
      "type": "constructor"
    },
    {
      "anonymous": false,
      "inputs": [
        {
          "indexed": true,
          "internalType": "address",
          "name": "universityAddress",
          "type": "address"
        },
        {
          "indexed": false,
          "internalType": "string",
          "name": "name",
          "type": "string"
        }
      ],
      "name": "UniversityAdded",
      "type": "event"
    },
    {
      "anonymous": false,
      "inputs": [
        {
          "indexed": true,
          "internalType": "address",
          "name": "universityAddress",
          "type": "address"
        }
      ],
      "name": "UniversityRevoked",
      "type": "event"
    },
    {
      "constant": true,
      "inputs": [],
      "name": "owner",
      "outputs": [
        {
          "internalType": "address",
          "name": "",
          "type": "address"
        }
      ],
      "payable": false,
      "stateMutability": "view",
      "type": "function"
    },
    {
      "constant": true,
      "inputs": [
        {
          "internalType": "address",
          "name": "",
          "type": "address"
        }
      ],
      "name": "universities",
      "outputs": [
        {
          "internalType": "string",
          "name": "name",
          "type": "string"
        },
        {
          "internalType": "address",
          "name": "universityAddress",
          "type": "address"
        },
        {
          "internalType": "bool",
          "name": "exists",
          "type": "bool"
        }
      ],
      "payable": false,
      "stateMutability": "view",
      "type": "function"
    },
    {
      "constant": true,
      "inputs": [
        {
          "internalType": "uint256",
          "name": "",
          "type": "uint256"
        }
      ],
      "name": "universityList",
      "outputs": [
        {
          "internalType": "address",
          "name": "",
          "type": "address"
        }
      ],
      "payable": false,
      "stateMutability": "view",
      "type": "function"
    },
    {
      "constant": false,
      "inputs": [
        {
          "internalType": "address",
          "name": "_universityAddress",
          "type": "address"
        },
        {
          "internalType": "string",
          "name": "_name",
          "type": "string"
        }
      ],
      "name": "addUniversity",
      "outputs": [],
      "payable": false,
      "stateMutability": "nonpayable",
      "type": "function"
    },
    {
      "constant": false,
      "inputs": [
        {
          "internalType": "address",
          "name": "_universityAddress",
          "type": "address"
        }
      ],
      "name": "revokeUniversity",
      "outputs": [],
      "payable": false,
      "stateMutability": "nonpayable",
      "type": "function"
    },
    {
      "constant": true,
      "inputs": [
        {
          "internalType": "address",
          "name": "_addr",
          "type": "address"
        }
      ],
      "name": "isUniversity",
      "outputs": [
        {
          "internalType": "bool",
          "name": "",
          "type": "bool"
        },
        {
          "internalType": "string",
          "name": "",
          "type": "string"
        }
      ],
      "payable": false,
      "stateMutability": "view",
      "type": "function"
    },
    {
      "constant": true,
      "inputs": [],
      "name": "getAllUniversities",
      "outputs": [
        {
          "components": [
            {
              "internalType": "string",
              "name": "name",
              "type": "string"
            },
            {
              "internalType": "address",
              "name": "universityAddress",
              "type": "address"
            },
            {
              "internalType": "bool",
              "name": "exists",
              "type": "bool"
            }
          ],
          "internalType": "struct UniversityRegistry.University[]",
          "name": "",
          "type": "tuple[]"
        }
      ],
      "payable": false,
      "stateMutability": "view",
      "type": "function"
    }
  ],
  "bytecode": "0x608060405234801561001057600080fd5b50600080546001600160a01b03191633179055610dd5806100326000396000f3fe608060405234801561001057600080fd5b506004361061007d5760003560e01c8063e1b100501161005b578063e1b10050146100d6578063e4ee8755146100e9578063f0995560146100fc578063f597d9941461011e5761007d565b80638da5cb5b14610082578063a908dc62146100a0578063b9730cde146100b5575b600080fd5b61008a610133565b6040516100979190610bf4565b60405180910390f35b6100b36100ae366004610975565b610142565b005b6100c86100c336600461094f565b6102e4565b604051610097929190610c13565b61008a6100e43660046109c7565b6103da565b6100b36100f736600461094f565b610401565b61010f61010a36600461094f565b6105ba565b60405161009793929190610c44565b610126610672565b6040516100979190610c02565b6000546001600160a01b031681565b6000546001600160a01b031633146101755760405162461bcd60e51b815260040161016c90610c71565b60405180910390fd5b6000546001600160a01b03838116911614156101a35760405162461bcd60e51b815260040161016c90610ca1565b6001600160a01b03821660009081526001602081905260409091200154600160a01b900460ff16156101e75760405162461bcd60e51b815260040161016c90610c91565b604080516060810182528281526001600160a01b0384166020808301829052600183850181905260009283528152929020815180519293919261022d92849201906107e0565b506020820151600191820180546040948501511515600160a01b0260ff60a01b196001600160a01b039485166001600160a01b03199384161716179091556002805493840181556000527f405787fa12a823e0f2b7631cc41b3ba8828b3321ca811111fa75cd3aa3bb5ace909201805491861691909216811790915590517fec1e06e5bcd47cc0ab9791be5856f0e0bab5a2be711f3f3fd979d4c694c7c1f9906102d8908490610c33565b60405180910390a25050565b600060606102f061085e565b6001600160a01b0384166000908152600160208181526040928390208351815460029481161561010002600019011693909304601f81018390049092028301608090810190945260608301828152929390928492909184919084018282801561039a5780601f1061036f5761010080835404028352916020019161039a565b820191906000526020600020905b81548152906001019060200180831161037d57829003601f168201915b5050509183525050600191909101546001600160a01b0381166020830152600160a01b900460ff1615156040918201528101519051909590945092505050565b600281815481106103e757fe5b6000918252602090912001546001600160a01b0316905081565b6000546001600160a01b0316331461042b5760405162461bcd60e51b815260040161016c90610c71565b6001600160a01b03811660009081526001602081905260409091200154600160a01b900460ff1661046e5760405162461bcd60e51b815260040161016c90610c81565b6001600160a01b038116600090815260016020526040812090610491828261087e565b5060010180546001600160a81b031916905560005b60025481101561058257816001600160a01b0316600282815481106104c757fe5b6000918252602090912001546001600160a01b0316141561057a576002805460001981019081106104f457fe5b600091825260209091200154600280546001600160a01b03909216918390811061051a57fe5b9060005260206000200160006101000a8154816001600160a01b0302191690836001600160a01b03160217905550600280548061055357fe5b600082815260209020810160001990810180546001600160a01b0319169055019055610582565b6001016104a6565b506040516001600160a01b038216907f13ac9aa2c7e4f68cb10b8d7ba445383b32e9d48311cba0e322f9f932ad8872b990600090a250565b60016020818152600092835260409283902080548451600294821615610100026000190190911693909304601f810183900483028401830190945283835292839183018282801561064c5780601f106106215761010080835404028352916020019161064c565b820191906000526020600020905b81548152906001019060200180831161062f57829003601f168201915b505050600190930154919250506001600160a01b0381169060ff600160a01b9091041683565b6060806002805490506040519080825280602002602001820160405280156106b457816020015b6106a161085e565b8152602001906001900390816106995790505b50905060005b6002548110156107d95760016000600283815481106106d557fe5b6000918252602080832091909101546001600160a01b0316835282810193909352604091820190208151815460026101006001831615026000190190911604601f8101859004909402810160809081019093526060810184815290939192849284918401828280156107885780601f1061075d57610100808354040283529160200191610788565b820191906000526020600020905b81548152906001019060200180831161076b57829003601f168201915b5050509183525050600191909101546001600160a01b0381166020830152600160a01b900460ff16151560409091015282518390839081106107c657fe5b60209081029190910101526001016106ba565b5090505b90565b828054600181600116156101000203166002900490600052602060002090601f016020900481019282601f1061082157805160ff191683800117855561084e565b8280016001018555821561084e579182015b8281111561084e578251825591602001919060010190610833565b5061085a9291506108c5565b5090565b604080516060808201835281526000602082018190529181019190915290565b50805460018160011615610100020316600290046000825580601f106108a457506108c2565b601f0160209004906000526020600020908101906108c291906108c5565b50565b6107dd91905b8082111561085a57600081556001016108cb565b80356108ea81610d75565b92915050565b600082601f83011261090157600080fd5b813561091461090f82610cd8565b610cb1565b9150808252602083016020830185838301111561093057600080fd5b61093b838284610d2f565b50505092915050565b80356108ea81610d89565b60006020828403121561096157600080fd5b600061096d84846108df565b949350505050565b6000806040838503121561098857600080fd5b600061099485856108df565b925050602083013567ffffffffffffffff8111156109b157600080fd5b6109bd858286016108f0565b9150509250929050565b6000602082840312156109d957600080fd5b600061096d8484610944565b60006109f18383610bac565b9392505050565b610a0181610d13565b82525050565b6000610a1282610d06565b610a1c8185610d0a565b935083602082028501610a2e85610d00565b8060005b85811015610a685784840389528151610a4b85826109e5565b9450610a5683610d00565b60209a909a0199925050600101610a32565b5091979650505050505050565b610a0181610d1e565b6000610a8982610d06565b610a938185610d0a565b9350610aa3818560208601610d3b565b610aac81610d6b565b9093019392505050565b6000610ac3602983610d0a565b7f536164656365206b6f6e74726174207361686962692062752069736c656d69208152683cb0b830b134b634b960b91b602082015260400192915050565b6000610b0e601883610d0a565b7f556e6976657273697465206b617969746c6920646567696c0000000000000000815260200192915050565b6000610b47601883610d0a565b7f556e6976657273697465207a6174656e206b617969746c690000000000000000815260200192915050565b6000610b80601783610d0a565b7f41646d696e206b656e64696e6920656b6c6579656d657a000000000000000000815260200192915050565b8051606080845260009190840190610bc48282610a7e565b9150506020830151610bd960208601826109f8565b506040830151610bec6040860182610a75565b509392505050565b602081016108ea82846109f8565b602080825281016109f18184610a07565b60408101610c218285610a75565b818103602083015261096d8184610a7e565b602080825281016109f18184610a7e565b60608082528101610c558186610a7e565b9050610c6460208301856109f8565b61096d6040830184610a75565b602080825281016108ea81610ab6565b602080825281016108ea81610b01565b602080825281016108ea81610b3a565b602080825281016108ea81610b73565b60405181810167ffffffffffffffff81118282101715610cd057600080fd5b604052919050565b600067ffffffffffffffff821115610cef57600080fd5b506020601f91909101601f19160190565b60200190565b5190565b90815260200190565b60006108ea82610d23565b151590565b6001600160a01b031690565b82818337506000910152565b60005b83811015610d56578181015183820152602001610d3e565b83811115610d65576000848401525b50505050565b601f01601f191690565b610d7e81610d13565b81146108c257600080fd5b610d7e816107dd56fea365627a7a72315820fc32747b9324c37562b8fb18c5ab8960dff3d0be8933a6aa9ee458260dda35666c6578706572696d656e74616cf564736f6c63430005100040",
  "source": "// SPDX-License-Identifier: MIT\r\npragma solidity >=0.4.22 <0.9.0;\r\npragma experimental ABIEncoderV2;\r\n\r\ncontract UniversityRegistry {\r\n    address public owner;\r\n\r\n    struct University {\r\n        string name;\r\n        address universityAddress;\r\n        bool exists;\r\n    }\r\n\r\n    mapping(address => University) public universities;\r\n    address[] public universityList;\r\n\r\n    event UniversityAdded(address indexed universityAddress, string name);\r\n    event UniversityRevoked(address indexed universityAddress);\r\n\r\n    modifier onlyOwner() {\r\n        require(msg.sender == owner, \"Sadece kontrat sahibi bu islemi yapabilir\");\r\n        _;\r\n    }\r\n\r\n    constructor() public{\r\n        owner = msg.sender;\r\n    }\r\n\r\n    function addUniversity(address _universityAddress, string memory _name) public onlyOwner {\r\n        require(_universityAddress != owner, \"Admin kendini ekleyemez\");\r\n        require(!universities[_universityAddress].exists, \"Universite zaten kayitli\");\r\n\r\n        universities[_universityAddress] = University({\r\n            name: _name,\r\n            universityAddress: _universityAddress,\r\n            exists: true\r\n        });\r\n        universityList.push(_universityAddress);\r\n        emit UniversityAdded(_universityAddress, _name);\r\n    }\r\n\r\n    function revokeUniversity(address _universityAddress) public onlyOwner {\r\n        require(universities[_universityAddress].exists, \"Universite kayitli degil\");\r\n        delete universities[_universityAddress];\r\n\r\n        for (uint i = 0; i < universityList.length; i++) {\r\n            if (universityList[i] == _universityAddress) {\r\n                universityList[i] = universityList[universityList.length - 1];\r\n                universityList.pop();\r\n                break;\r\n            }\r\n        }\r\n        emit UniversityRevoked(_universityAddress);\r\n    }\r\n\r\n    function isUniversity(address _addr) public view returns (bool, string memory) {\r\n        University memory uni = universities[_addr];\r\n        return (uni.exists, uni.name);\r\n    }\r\n\r\n    function getAllUniversities() public view returns (University[] memory) {\r\n        University[] memory list = new University[](universityList.length);\r\n        for (uint i = 0; i < universityList.length; i++) {\r\n            list[i] = universities[universityList[i]];\r\n        }\r\n        return list;\r\n    }\r\n}\r\n",
  "sourcePath": "C:\\Users\\Said\\Desktop\\Bitirme Projesi\\contracts\\UniversityRegistry.sol",
  "compiler": {
    "name": "solc",
    "version": "0.5.16+commit.9c3226ce.Emscripten.clang"
  },
  "schemaVersion": "3.4.16",
  "updatedAt": "2025-04-26T09:54:48.183Z",
  "networkType": "ethereum",
  "devdoc": {
    "methods": {}
  },
  "userdoc": {
    "methods": {}
  }
}