{
  "contractName": "DiplomaRegistry",
  "abi": [
    {
      "inputs": [
        {
          "internalType": "address",
          "name": "_universityRegistryAddress",
          "type": "address"
        }
      ],
      "payable": false,
      "stateMutability": "nonpayable",
      "type": "constructor"
    },
    {
      "anonymous": false,
      "inputs": [
        {
          "indexed": false,
          "internalType": "uint256",
          "name": "id",
          "type": "uint256"
        },
        {
          "indexed": false,
          "internalType": "string",
          "name": "studentName",
          "type": "string"
        },
        {
          "indexed": false,
          "internalType": "string",
          "name": "degree",
          "type": "string"
        },
        {
          "indexed": false,
          "internalType": "string",
          "name": "ipfsHash",
          "type": "string"
        }
      ],
      "name": "DiplomaAdded",
      "type": "event"
    },
    {
      "anonymous": false,
      "inputs": [
        {
          "indexed": false,
          "internalType": "uint256",
          "name": "id",
          "type": "uint256"
        },
        {
          "indexed": false,
          "internalType": "bool",
          "name": "isValid",
          "type": "bool"
        }
      ],
      "name": "DiplomaStatusChanged",
      "type": "event"
    },
    {
      "constant": true,
      "inputs": [],
      "name": "diplomaCount",
      "outputs": [
        {
          "internalType": "uint256",
          "name": "",
          "type": "uint256"
        }
      ],
      "payable": false,
      "stateMutability": "view",
      "type": "function"
    },
    {
      "constant": true,
      "inputs": [
        {
          "internalType": "uint256",
          "name": "",
          "type": "uint256"
        }
      ],
      "name": "diplomas",
      "outputs": [
        {
          "internalType": "uint256",
          "name": "id",
          "type": "uint256"
        },
        {
          "internalType": "string",
          "name": "studentName",
          "type": "string"
        },
        {
          "internalType": "string",
          "name": "degree",
          "type": "string"
        },
        {
          "internalType": "bool",
          "name": "isValid",
          "type": "bool"
        },
        {
          "internalType": "string",
          "name": "ipfsHash",
          "type": "string"
        }
      ],
      "payable": false,
      "stateMutability": "view",
      "type": "function"
    },
    {
      "constant": true,
      "inputs": [],
      "name": "universityRegistry",
      "outputs": [
        {
          "internalType": "contract UniversityRegistry",
          "name": "",
          "type": "address"
        }
      ],
      "payable": false,
      "stateMutability": "view",
      "type": "function"
    },
    {
      "constant": false,
      "inputs": [
        {
          "internalType": "string",
          "name": "_studentName",
          "type": "string"
        },
        {
          "internalType": "string",
          "name": "_degree",
          "type": "string"
        },
        {
          "internalType": "string",
          "name": "_ipfsHash",
          "type": "string"
        }
      ],
      "name": "addDiploma",
      "outputs": [],
      "payable": false,
      "stateMutability": "nonpayable",
      "type": "function"
    },
    {
      "constant": false,
      "inputs": [
        {
          "internalType": "uint256",
          "name": "_id",
          "type": "uint256"
        }
      ],
      "name": "invalidateDiploma",
      "outputs": [],
      "payable": false,
      "stateMutability": "nonpayable",
      "type": "function"
    },
    {
      "constant": false,
      "inputs": [
        {
          "internalType": "uint256",
          "name": "_id",
          "type": "uint256"
        }
      ],
      "name": "validateDiploma",
      "outputs": [],
      "payable": false,
      "stateMutability": "nonpayable",
      "type": "function"
    }
  ],
  "bytecode": "0x608060405234801561001057600080fd5b50604051610cf3380380610cf38339818101604052602081101561003357600080fd5b5051600080546001600160a01b039092166001600160a01b0319909216919091179055610c8e806100656000396000f3fe608060405234801561001057600080fd5b50600436106100625760003560e01c806335dfc1c31461006757806336b1d37f146101da57806358a1a951146101fe5780636920613f146103b4578063d67146b5146103ce578063e9ef40f7146103eb575b600080fd5b6100846004803603602081101561007d57600080fd5b5035610408565b6040518086815260200180602001806020018515151515815260200180602001848103845288818151815260200191508051906020019080838360005b838110156100d95781810151838201526020016100c1565b50505050905090810190601f1680156101065780820380516001836020036101000a031916815260200191505b50848103835287518152875160209182019189019080838360005b83811015610139578181015183820152602001610121565b50505050905090810190601f1680156101665780820380516001836020036101000a031916815260200191505b50848103825285518152855160209182019187019080838360005b83811015610199578181015183820152602001610181565b50505050905090810190601f1680156101c65780820380516001836020036101000a031916815260200191505b509850505050505050505060405180910390f35b6101e26105db565b604080516001600160a01b039092168252519081900360200190f35b6103b26004803603606081101561021457600080fd5b81019060208101813564010000000081111561022f57600080fd5b82018360208201111561024157600080fd5b8035906020019184600183028401116401000000008311171561026357600080fd5b91908080601f01602080910402602001604051908101604052809392919081815260200183838082843760009201919091525092959493602081019350359150506401000000008111156102b657600080fd5b8201836020820111156102c857600080fd5b803590602001918460018302840111640100000000831117156102ea57600080fd5b91908080601f016020809104026020016040519081016040528093929190818152602001838380828437600092019190915250929594936020810193503591505064010000000081111561033d57600080fd5b82018360208201111561034f57600080fd5b8035906020019184600183028401116401000000008311171561037157600080fd5b91908080601f0160208091040260200160405190810160405280939291908181526020018383808284376000920191909152509295506105ea945050505050565b005b6103bc6108c4565b60408051918252519081900360200190f35b6103b2600480360360208110156103e457600080fd5b50356108ca565b6103b26004803603602081101561040157600080fd5b5035610a2f565b600160208181526000928352604092839020805481840180548651600296821615610100026000190190911695909504601f810185900485028601850190965285855290949193929091908301828280156104a45780601f10610479576101008083540402835291602001916104a4565b820191906000526020600020905b81548152906001019060200180831161048757829003601f168201915b50505060028085018054604080516020601f60001961010060018716150201909416959095049283018590048502810185019091528181529596959450909250908301828280156105365780601f1061050b57610100808354040283529160200191610536565b820191906000526020600020905b81548152906001019060200180831161051957829003601f168201915b50505050600383015460048401805460408051602060026101006001861615026000190190941693909304601f8101849004840282018401909252818152959660ff90941695939450908301828280156105d15780601f106105a6576101008083540402835291602001916105d1565b820191906000526020600020905b8154815290600101906020018083116105b457829003601f168201915b5050505050905085565b6000546001600160a01b031681565b60005460408051635cb9866f60e11b815233600482015290516001600160a01b039092169163b9730cde91602480820192602092909190829003018186803b15801561063557600080fd5b505afa158015610649573d6000803e3d6000fd5b505050506040513d602081101561065f57600080fd5b505161069c5760405162461bcd60e51b815260040180806020018281038252602d815260200180610c2d602d913960400191505060405180910390fd5b600280546001908101918290556040805160a081018252838152602080820188815282840188905260608301859052608083018790526000958652848252929094208151815591518051919492936106fa9390850192910190610b91565b5060408201518051610716916002840191602090910190610b91565b50606082015160038201805460ff19169115159190911790556080820151805161074a916004840191602090910190610b91565b509050507fc3de4a8e4f7f01fbc0167cdc7bacf45ea3f32b60bdb8842fe5ef7c799ce536f260025484848460405180858152602001806020018060200180602001848103845287818151815260200191508051906020019080838360005b838110156107c05781810151838201526020016107a8565b50505050905090810190601f1680156107ed5780820380516001836020036101000a031916815260200191505b50848103835286518152865160209182019188019080838360005b83811015610820578181015183820152602001610808565b50505050905090810190601f16801561084d5780820380516001836020036101000a031916815260200191505b50848103825285518152855160209182019187019080838360005b83811015610880578181015183820152602001610868565b50505050905090810190601f1680156108ad5780820380516001836020036101000a031916815260200191505b5097505050505050505060405180910390a1505050565b60025481565b60005460408051635cb9866f60e11b815233600482015290516001600160a01b039092169163b9730cde91602480820192602092909190829003018186803b15801561091557600080fd5b505afa158015610929573d6000803e3d6000fd5b505050506040513d602081101561093f57600080fd5b505161097c5760405162461bcd60e51b815260040180806020018281038252602d815260200180610c2d602d913960400191505060405180910390fd5b60008111801561098e57506002548111155b6109d4576040805162461bcd60e51b81526020600482015260126024820152714469706c6f6d612062756c756e616d61646960701b604482015290519081900360640190fd5b600081815260016020818152604092839020600301805460ff19168317905582518481529081019190915281517fc9a825637a612168df98682200df410fa2c0325338b628326e214cc2d67a0640929181900390910190a150565b60005460408051635cb9866f60e11b815233600482015290516001600160a01b039092169163b9730cde91602480820192602092909190829003018186803b158015610a7a57600080fd5b505afa158015610a8e573d6000803e3d6000fd5b505050506040513d6020811015610aa457600080fd5b5051610ae15760405162461bcd60e51b815260040180806020018281038252602d815260200180610c2d602d913960400191505060405180910390fd5b600081118015610af357506002548111155b610b39576040805162461bcd60e51b81526020600482015260126024820152714469706c6f6d612062756c756e616d61646960701b604482015290519081900360640190fd5b6000818152600160209081526040808320600301805460ff1916905580518481529182019290925281517fc9a825637a612168df98682200df410fa2c0325338b628326e214cc2d67a0640929181900390910190a150565b828054600181600116156101000203166002900490600052602060002090601f016020900481019282601f10610bd257805160ff1916838001178555610bff565b82800160010185558215610bff579182015b82811115610bff578251825591602001919060010190610be4565b50610c0b929150610c0f565b5090565b610c2991905b80821115610c0b5760008155600101610c15565b9056fe536164656365206b617969746c6920756e69766572736974652062752069736c656d69207961706162696c6972a265627a7a7231582060f66337cbaba6452086e2dccdf0ed07fc828d7e9882ab81260b1f1e0d8d53a664736f6c63430005100032",
  "source": "// SPDX-License-Identifier: MIT\r\npragma solidity >=0.4.22 <0.9.0;\r\n\r\n/*\r\n    Diploma Kayıt Kontratı:\r\n    - Bu kontrat, üniversiteler tarafından oluşturulan diplomaları saklar.\r\n    - Sadece kayıtlı üniversiteler diploma ekleyebilir, geçerlilik durumunu değiştirebilir.\r\n    - Yeni eklenen ipfsHash alanı, IPFS üzerinde saklanan diploma PDF dosyasının hash değerini tutar.\r\n*/\r\nimport \"./UniversityRegistry.sol\";\r\n\r\ncontract DiplomaRegistry {\r\n    // UniversityRegistry kontratına referans\r\n    UniversityRegistry public universityRegistry;\r\n    \r\n    // Diploma bilgilerini tutan yapı\r\n    struct Diploma {\r\n        uint id;\r\n        string studentName;\r\n        string degree;\r\n        bool isValid;\r\n        string ipfsHash;\r\n    }\r\n    \r\n    // Diplomalari saklamak için mapping\r\n    mapping(uint => Diploma) public diplomas;\r\n    uint public diplomaCount;\r\n    \r\n    // Diploma ekleme ve durum değişikliği eventleri\r\n    event DiplomaAdded(uint id, string studentName, string degree, string ipfsHash);\r\n    event DiplomaStatusChanged(uint id, bool isValid);\r\n    \r\n    // Sadece kayıtlı üniversitelerin işlem yapabilmesi için modifier\r\n    modifier onlyUniversity() {\r\n        require(universityRegistry.isUniversity(msg.sender), \"Sadece kayitli universite bu islemi yapabilir\");\r\n        _;\r\n    }\r\n    \r\n    // DiplomaRegistry kontratı deploy edilirken UniversityRegistry kontratının adresi verilmelidir.\r\n    constructor(address _universityRegistryAddress) public {\r\n        universityRegistry = UniversityRegistry(_universityRegistryAddress);\r\n    }\r\n    \r\n    // Yeni diploma ekleme fonksiyonu (sadece kayıtlı üniversiteler tarafından çağrılabilir)\r\n    function addDiploma(string memory _studentName, string memory _degree, string memory _ipfsHash) public onlyUniversity {\r\n        diplomaCount++;\r\n        diplomas[diplomaCount] = Diploma({\r\n            id: diplomaCount,\r\n            studentName: _studentName,\r\n            degree: _degree,\r\n            isValid: true,\r\n            ipfsHash: _ipfsHash\r\n        });\r\n        emit DiplomaAdded(diplomaCount, _studentName, _degree, _ipfsHash);\r\n    }\r\n    \r\n    // Belirtilen diplomanın geçerliliğini iptal eder (sadece kayıtlı üniversiteler)\r\n    function invalidateDiploma(uint _id) public onlyUniversity {\r\n        require(_id > 0 && _id <= diplomaCount, \"Diploma bulunamadi\");\r\n        diplomas[_id].isValid = false;\r\n        emit DiplomaStatusChanged(_id, false);\r\n    }\r\n    \r\n    // Belirtilen diplomanın geçerli olduğunu onaylar (sadece kayıtlı üniversiteler)\r\n    function validateDiploma(uint _id) public onlyUniversity {\r\n        require(_id > 0 && _id <= diplomaCount, \"Diploma bulunamadi\");\r\n        diplomas[_id].isValid = true;\r\n        emit DiplomaStatusChanged(_id, true);\r\n    }\r\n}\r\n",
  "sourcePath": "C:\\Users\\Said\\Desktop\\Bitirme Projesi\\contracts\\DiplomaRegistry.sol",
  "compiler": {
    "name": "solc",
    "version": "0.5.16+commit.9c3226ce.Emscripten.clang"
  },
  "schemaVersion": "3.4.16",
  "updatedAt": "2025-04-05T10:06:37.755Z",
  "networkType": "ethereum",
  "devdoc": {
    "methods": {}
  },
  "userdoc": {
    "methods": {}
  }
}