{
  "contractName": "DiplomaRegistry",
  "abi": [
    {
      "inputs": [
        {
          "internalType": "address",
          "name": "_universityRegistryAddress",
          "type": "address"
        }
      ],
      "payable": false,
      "stateMutability": "nonpayable",
      "type": "constructor"
    },
    {
      "anonymous": false,
      "inputs": [
        {
          "indexed": false,
          "internalType": "uint256",
          "name": "id",
          "type": "uint256"
        },
        {
          "indexed": false,
          "internalType": "string",
          "name": "studentName",
          "type": "string"
        },
        {
          "indexed": false,
          "internalType": "string",
          "name": "degree",
          "type": "string"
        },
        {
          "indexed": false,
          "internalType": "string",
          "name": "ipfsHash",
          "type": "string"
        }
      ],
      "name": "DiplomaAdded",
      "type": "event"
    },
    {
      "anonymous": false,
      "inputs": [
        {
          "indexed": false,
          "internalType": "uint256",
          "name": "id",
          "type": "uint256"
        },
        {
          "indexed": false,
          "internalType": "bool",
          "name": "isValid",
          "type": "bool"
        }
      ],
      "name": "DiplomaStatusChanged",
      "type": "event"
    },
    {
      "constant": true,
      "inputs": [],
      "name": "diplomaCount",
      "outputs": [
        {
          "internalType": "uint256",
          "name": "",
          "type": "uint256"
        }
      ],
      "payable": false,
      "stateMutability": "view",
      "type": "function"
    },
    {
      "constant": true,
      "inputs": [
        {
          "internalType": "uint256",
          "name": "",
          "type": "uint256"
        }
      ],
      "name": "diplomas",
      "outputs": [
        {
          "internalType": "uint256",
          "name": "id",
          "type": "uint256"
        },
        {
          "internalType": "string",
          "name": "studentName",
          "type": "string"
        },
        {
          "internalType": "string",
          "name": "degree",
          "type": "string"
        },
        {
          "internalType": "bool",
          "name": "isValid",
          "type": "bool"
        },
        {
          "internalType": "string",
          "name": "ipfsHash",
          "type": "string"
        },
        {
          "internalType": "address",
          "name": "registeredBy",
          "type": "address"
        }
      ],
      "payable": false,
      "stateMutability": "view",
      "type": "function"
    },
    {
      "constant": true,
      "inputs": [],
      "name": "universityRegistry",
      "outputs": [
        {
          "internalType": "contract UniversityRegistry",
          "name": "",
          "type": "address"
        }
      ],
      "payable": false,
      "stateMutability": "view",
      "type": "function"
    },
    {
      "constant": false,
      "inputs": [
        {
          "internalType": "string",
          "name": "_studentName",
          "type": "string"
        },
        {
          "internalType": "string",
          "name": "_degree",
          "type": "string"
        },
        {
          "internalType": "string",
          "name": "_ipfsHash",
          "type": "string"
        }
      ],
      "name": "addDiploma",
      "outputs": [],
      "payable": false,
      "stateMutability": "nonpayable",
      "type": "function"
    },
    {
      "constant": false,
      "inputs": [
        {
          "internalType": "address",
          "name": "_universityAddress",
          "type": "address"
        },
        {
          "internalType": "string",
          "name": "_studentName",
          "type": "string"
        },
        {
          "internalType": "string",
          "name": "_degree",
          "type": "string"
        },
        {
          "internalType": "string",
          "name": "_ipfsHash",
          "type": "string"
        }
      ],
      "name": "addDiplomaFor",
      "outputs": [],
      "payable": false,
      "stateMutability": "nonpayable",
      "type": "function"
    },
    {
      "constant": false,
      "inputs": [
        {
          "internalType": "uint256",
          "name": "_id",
          "type": "uint256"
        }
      ],
      "name": "invalidateDiploma",
      "outputs": [],
      "payable": false,
      "stateMutability": "nonpayable",
      "type": "function"
    },
    {
      "constant": false,
      "inputs": [
        {
          "internalType": "uint256",
          "name": "_id",
          "type": "uint256"
        }
      ],
      "name": "validateDiploma",
      "outputs": [],
      "payable": false,
      "stateMutability": "nonpayable",
      "type": "function"
    },
    {
      "constant": true,
      "inputs": [
        {
          "internalType": "address",
          "name": "universityAddr",
          "type": "address"
        }
      ],
      "name": "getDiplomasByUniversity",
      "outputs": [
        {
          "components": [
            {
              "internalType": "uint256",
              "name": "id",
              "type": "uint256"
            },
            {
              "internalType": "string",
              "name": "studentName",
              "type": "string"
            },
            {
              "internalType": "string",
              "name": "degree",
              "type": "string"
            },
            {
              "internalType": "bool",
              "name": "isValid",
              "type": "bool"
            },
            {
              "internalType": "string",
              "name": "ipfsHash",
              "type": "string"
            },
            {
              "internalType": "address",
              "name": "registeredBy",
              "type": "address"
            }
          ],
          "internalType": "struct DiplomaRegistry.Diploma[]",
          "name": "",
          "type": "tuple[]"
        }
      ],
      "payable": false,
      "stateMutability": "view",
      "type": "function"
    }
  ],
  "bytecode": "0x60806040523480156200001157600080fd5b506040516200164e3803806200164e83398101604081905262000034916200006d565b600080546001600160a01b0319166001600160a01b0392909216919091179055620000c2565b80516200006781620000a8565b92915050565b6000602082840312156200008057600080fd5b60006200008e84846200005a565b949350505050565b60006001600160a01b03821662000067565b620000b38162000096565b8114620000bf57600080fd5b50565b61157c80620000d26000396000f3fe608060405234801561001057600080fd5b50600436106100885760003560e01c80636920613f1161005b5780636920613f14610105578063c0be37111461011a578063d67146b51461012d578063e9ef40f71461014057610088565b8063129005571461008d57806335dfc1c3146100b657806336b1d37f146100db57806358a1a951146100f0575b600080fd5b6100a061009b366004610e79565b610153565b6040516100ad91906112f1565b60405180910390f35b6100c96100c436600461104c565b610438565b6040516100ad969594939291906113cb565b6100e361061a565b6040516100ad9190611302565b6101036100fe366004610fb8565b610629565b005b61010d6107fa565b6040516100ad9190611350565b610103610128366004610ebd565b610800565b61010361013b36600461104c565b610a87565b61010361014e36600461104c565b610bb5565b6060600060015b6002548111610197576000818152600160205260409020600501546001600160a01b038581169116141561018f576001909101905b60010161015a565b506060816040519080825280602002602001820160405280156101d457816020015b6101c1610cd1565b8152602001906001900390816101b95790505b509050600060015b600254811161042e576000818152600160205260409020600501546001600160a01b038781169116141561042657600081815260016020818152604092839020835160c0810185528154815281840180548651600296821615610100026000190190911695909504601f810185900485028601850190965285855290949193858401939092908301828280156102b35780601f10610288576101008083540402835291602001916102b3565b820191906000526020600020905b81548152906001019060200180831161029657829003601f168201915b5050509183525050600282810180546040805160206001841615610100026000190190931694909404601f810183900483028501830190915280845293810193908301828280156103455780601f1061031a57610100808354040283529160200191610345565b820191906000526020600020905b81548152906001019060200180831161032857829003601f168201915b5050509183525050600382015460ff16151560208083019190915260048301805460408051601f600260001960018616156101000201909416939093049283018590048502810185018252828152940193928301828280156103e85780601f106103bd576101008083540402835291602001916103e8565b820191906000526020600020905b8154815290600101906020018083116103cb57829003601f168201915b5050509183525050600591909101546001600160a01b0316602090910152835184908490811061041457fe5b60209081029190910101526001909101905b6001016101dc565b5090949350505050565b600160208181526000928352604092839020805481840180548651600296821615610100026000190190911695909504601f810185900485028601850190965285855290949193929091908301828280156104d45780601f106104a9576101008083540402835291602001916104d4565b820191906000526020600020905b8154815290600101906020018083116104b757829003601f168201915b50505060028085018054604080516020601f60001961010060018716150201909416959095049283018590048502810185019091528181529596959450909250908301828280156105665780601f1061053b57610100808354040283529160200191610566565b820191906000526020600020905b81548152906001019060200180831161054957829003601f168201915b50505050600383015460048401805460408051602060026101006001861615026000190190941693909304601f8101849004840282018401909252818152959660ff90941695939450908301828280156106015780601f106105d657610100808354040283529160200191610601565b820191906000526020600020905b8154815290600101906020018083116105e457829003601f168201915b505050600590930154919250506001600160a01b031686565b6000546001600160a01b031681565b60008054604051635cb9866f60e11b81526001600160a01b039091169063b9730cde9061065a9033906004016112e3565b60006040518083038186803b15801561067257600080fd5b505afa158015610686573d6000803e3d6000fd5b505050506040513d6000823e601f3d908101601f191682016040526106ae9190810190610f66565b509050806106d75760405162461bcd60e51b81526004016106ce90611310565b60405180910390fd5b600280546001908101918290556040805160c081018252838152602080820189815282840189905260608301859052608083018890523360a084015260009586528482529290942081518155915180519194929361073b9390850192910190610d12565b5060408201518051610757916002840191602090910190610d12565b50606082015160038201805460ff19169115159190911790556080820151805161078b916004840191602090910190610d12565b5060a09190910151600590910180546001600160a01b0319166001600160a01b039092169190911790556002546040517fc3de4a8e4f7f01fbc0167cdc7bacf45ea3f32b60bdb8842fe5ef7c799ce536f2916107ec91879087908790611379565b60405180910390a150505050565b60025481565b6000809054906101000a90046001600160a01b03166001600160a01b0316638da5cb5b6040518163ffffffff1660e01b815260040160206040518083038186803b15801561084d57600080fd5b505afa158015610861573d6000803e3d6000fd5b505050506040513d601f19601f820116820180604052506108859190810190610e9f565b6001600160a01b0316336001600160a01b0316146108b55760405162461bcd60e51b81526004016106ce90611330565b60008054604051635cb9866f60e11b81526001600160a01b039091169063b9730cde906108e69088906004016112d5565b60006040518083038186803b1580156108fe57600080fd5b505afa158015610912573d6000803e3d6000fd5b505050506040513d6000823e601f3d908101601f1916820160405261093a9190810190610f66565b5090508061095a5760405162461bcd60e51b81526004016106ce90611320565b600280546001908101918290556040805160c081018252838152602080820189815282840189905260608301859052608083018890526001600160a01b038b1660a08401526000958652848252929094208151815591518051919492936109c79390850192910190610d12565b50604082015180516109e3916002840191602090910190610d12565b50606082015160038201805460ff191691151591909117905560808201518051610a17916004840191602090910190610d12565b5060a09190910151600590910180546001600160a01b0319166001600160a01b039092169190911790556002546040517fc3de4a8e4f7f01fbc0167cdc7bacf45ea3f32b60bdb8842fe5ef7c799ce536f291610a7891879087908790611379565b60405180910390a15050505050565b60008054604051635cb9866f60e11b81526001600160a01b039091169063b9730cde90610ab89033906004016112e3565b60006040518083038186803b158015610ad057600080fd5b505afa158015610ae4573d6000803e3d6000fd5b505050506040513d6000823e601f3d908101601f19168201604052610b0c9190810190610f66565b50905080610b2c5760405162461bcd60e51b81526004016106ce90611310565b600082118015610b3e57506002548211155b610b5a5760405162461bcd60e51b81526004016106ce90611340565b600082815260016020819052604091829020600301805460ff19168217905590517fc9a825637a612168df98682200df410fa2c0325338b628326e214cc2d67a064091610ba99185919061135e565b60405180910390a15050565b60008054604051635cb9866f60e11b81526001600160a01b039091169063b9730cde90610be69033906004016112e3565b60006040518083038186803b158015610bfe57600080fd5b505afa158015610c12573d6000803e3d6000fd5b505050506040513d6000823e601f3d908101601f19168201604052610c3a9190810190610f66565b50905080610c5a5760405162461bcd60e51b81526004016106ce90611310565b600082118015610c6c57506002548211155b610c885760405162461bcd60e51b81526004016106ce90611340565b600082815260016020526040808220600301805460ff19169055517fc9a825637a612168df98682200df410fa2c0325338b628326e214cc2d67a064091610ba99185919061135e565b6040518060c001604052806000815260200160608152602001606081526020016000151581526020016060815260200160006001600160a01b031681525090565b828054600181600116156101000203166002900490600052602060002090601f016020900481019282601f10610d5357805160ff1916838001178555610d80565b82800160010185558215610d80579182015b82811115610d80578251825591602001919060010190610d65565b50610d8c929150610d90565b5090565b610daa91905b80821115610d8c5760008155600101610d96565b90565b8035610db881611510565b92915050565b8051610db881611510565b8051610db881611527565b600082601f830112610de557600080fd5b8135610df8610df382611461565b61143a565b91508082526020830160208301858383011115610e1457600080fd5b610e1f8382846114ca565b50505092915050565b600082601f830112610e3957600080fd5b8151610e47610df382611461565b91508082526020830160208301858383011115610e6357600080fd5b610e1f8382846114d6565b8035610db881611530565b600060208284031215610e8b57600080fd5b6000610e978484610dad565b949350505050565b600060208284031215610eb157600080fd5b6000610e978484610dbe565b60008060008060808587031215610ed357600080fd5b6000610edf8787610dad565b945050602085013567ffffffffffffffff811115610efc57600080fd5b610f0887828801610dd4565b935050604085013567ffffffffffffffff811115610f2557600080fd5b610f3187828801610dd4565b925050606085013567ffffffffffffffff811115610f4e57600080fd5b610f5a87828801610dd4565b91505092959194509250565b60008060408385031215610f7957600080fd5b6000610f858585610dc9565b925050602083015167ffffffffffffffff811115610fa257600080fd5b610fae85828601610e28565b9150509250929050565b600080600060608486031215610fcd57600080fd5b833567ffffffffffffffff811115610fe457600080fd5b610ff086828701610dd4565b935050602084013567ffffffffffffffff81111561100d57600080fd5b61101986828701610dd4565b925050604084013567ffffffffffffffff81111561103657600080fd5b61104286828701610dd4565b9150509250925092565b60006020828403121561105e57600080fd5b6000610e978484610e6e565b6000611076838361123c565b9392505050565b611086816114b8565b82525050565b6110868161149c565b60006110a08261148f565b6110aa8185611493565b9350836020820285016110bc85611489565b8060005b858110156110f657848403895281516110d9858261106a565b94506110e483611489565b60209a909a01999250506001016110c0565b5091979650505050505050565b611086816114a7565b611086816114bf565b60006111208261148f565b61112a8185611493565b935061113a8185602086016114d6565b61114381611506565b9093019392505050565b600061115a602d83611493565b7f536164656365206b617969746c6920756e69766572736974652062752069736c81526c32b6b4903cb0b830b134b634b960991b602082015260400192915050565b60006111a9601883611493565b7f556e69766572736974652074616e696d6c6920646567696c0000000000000000815260200192915050565b60006111e2601d83611493565b7f5361646563652061646d696e2069736c656d69207961706162696c6972000000815260200192915050565b600061121b601283611493565b714469706c6f6d612062756c756e616d61646960701b815260200192915050565b805160009060c084019061125085826112cc565b50602083015184820360208601526112688282611115565b915050604083015184820360408601526112828282611115565b91505060608301516112976060860182611103565b50608083015184820360808601526112af8282611115565b91505060a08301516112c460a086018261108c565b509392505050565b61108681610daa565b60208101610db8828461108c565b60208101610db8828461107d565b602080825281016110768184611095565b60208101610db8828461110c565b60208082528101610db88161114d565b60208082528101610db88161119c565b60208082528101610db8816111d5565b60208082528101610db88161120e565b60208101610db882846112cc565b6040810161136c82856112cc565b6110766020830184611103565b6080810161138782876112cc565b81810360208301526113998186611115565b905081810360408301526113ad8185611115565b905081810360608301526113c18184611115565b9695505050505050565b60c081016113d982896112cc565b81810360208301526113eb8188611115565b905081810360408301526113ff8187611115565b905061140e6060830186611103565b81810360808301526114208185611115565b905061142f60a083018461108c565b979650505050505050565b60405181810167ffffffffffffffff8111828210171561145957600080fd5b604052919050565b600067ffffffffffffffff82111561147857600080fd5b506020601f91909101601f19160190565b60200190565b5190565b90815260200190565b6000610db8826114ac565b151590565b6001600160a01b031690565b6000610db8825b6000610db88261149c565b82818337506000910152565b60005b838110156114f15781810151838201526020016114d9565b83811115611500576000848401525b50505050565b601f01601f191690565b6115198161149c565b811461152457600080fd5b50565b611519816114a7565b61151981610daa56fea365627a7a72315820a609092d0a84e8e72dd255ebbb8df9669c97b7dc5dd09b06596898b8326f14466c6578706572696d656e74616cf564736f6c63430005100040",
  "source": "// SPDX-License-Identifier: MIT\r\npragma solidity >=0.4.22 <0.9.0;\r\npragma experimental ABIEncoderV2;\r\n\r\nimport \"./UniversityRegistry.sol\";\r\n\r\ncontract DiplomaRegistry {\r\n    UniversityRegistry public universityRegistry;\r\n\r\n    struct Diploma {\r\n        uint id;\r\n        string studentName;\r\n        string degree;\r\n        bool isValid;\r\n        string ipfsHash;\r\n        address registeredBy;\r\n    }\r\n\r\n    mapping(uint => Diploma) public diplomas;\r\n    uint public diplomaCount;\r\n\r\n    event DiplomaAdded(\r\n        uint id,\r\n        string studentName,\r\n        string degree,\r\n        string ipfsHash\r\n    );\r\n    event DiplomaStatusChanged(uint id, bool isValid);\r\n\r\n    modifier onlyUniversity() {\r\n        (bool exists, ) = universityRegistry.isUniversity(msg.sender);\r\n        require(exists, \"Sadece kayitli universite bu islemi yapabilir\");\r\n        _;\r\n    }\r\n\r\n    modifier onlyAdmin() {\r\n        require(\r\n            msg.sender == universityRegistry.owner(),\r\n            \"Sadece admin islemi yapabilir\"\r\n        );\r\n        _;\r\n    }\r\n\r\n    constructor(address _universityRegistryAddress) public {\r\n        universityRegistry = UniversityRegistry(_universityRegistryAddress);\r\n    }\r\n\r\n    function addDiploma(\r\n        string memory _studentName,\r\n        string memory _degree,\r\n        string memory _ipfsHash\r\n    ) public onlyUniversity {\r\n        diplomaCount++;\r\n        diplomas[diplomaCount] = Diploma({\r\n            id: diplomaCount,\r\n            studentName: _studentName,\r\n            degree: _degree,\r\n            isValid: true,\r\n            ipfsHash: _ipfsHash,\r\n            registeredBy: msg.sender\r\n        });\r\n        emit DiplomaAdded(diplomaCount, _studentName, _degree, _ipfsHash);\r\n    }\r\n\r\n    function addDiplomaFor(\r\n        address _universityAddress,\r\n        string memory _studentName,\r\n        string memory _degree,\r\n        string memory _ipfsHash\r\n    ) public onlyAdmin {\r\n        (bool exists, ) = universityRegistry.isUniversity(_universityAddress);\r\n        require(exists, \"Universite tanimli degil\");\r\n\r\n        diplomaCount++;\r\n        diplomas[diplomaCount] = Diploma({\r\n            id: diplomaCount,\r\n            studentName: _studentName,\r\n            degree: _degree,\r\n            isValid: true,\r\n            ipfsHash: _ipfsHash,\r\n            registeredBy: _universityAddress\r\n        });\r\n        emit DiplomaAdded(diplomaCount, _studentName, _degree, _ipfsHash);\r\n    }\r\n\r\n    function invalidateDiploma(uint _id) public onlyUniversity {\r\n        require(_id > 0 && _id <= diplomaCount, \"Diploma bulunamadi\");\r\n        diplomas[_id].isValid = false;\r\n        emit DiplomaStatusChanged(_id, false);\r\n    }\r\n\r\n    function validateDiploma(uint _id) public onlyUniversity {\r\n        require(_id > 0 && _id <= diplomaCount, \"Diploma bulunamadi\");\r\n        diplomas[_id].isValid = true;\r\n        emit DiplomaStatusChanged(_id, true);\r\n    }\r\n\r\n    function getDiplomasByUniversity(\r\n        address universityAddr\r\n    ) public view returns (Diploma[] memory) {\r\n        uint count = 0;\r\n        for (uint i = 1; i <= diplomaCount; i++) {\r\n            if (diplomas[i].registeredBy == universityAddr) {\r\n                count++;\r\n            }\r\n        }\r\n        Diploma[] memory result = new Diploma[](count);\r\n        uint index = 0;\r\n        for (uint i = 1; i <= diplomaCount; i++) {\r\n            if (diplomas[i].registeredBy == universityAddr) {\r\n                result[index] = diplomas[i];\r\n                index++;\r\n            }\r\n        }\r\n        return result;\r\n    }\r\n}\r\n",
  "sourcePath": "C:\\Users\\Said\\Desktop\\Bitirme Projesi\\contracts\\DiplomaRegistry.sol",
  "compiler": {
    "name": "solc",
    "version": "0.5.16+commit.9c3226ce.Emscripten.clang"
  },
  "schemaVersion": "3.4.16",
  "updatedAt": "2025-04-26T09:00:24.538Z",
  "networkType": "ethereum",
  "devdoc": {
    "methods": {}
  },
  "userdoc": {
    "methods": {}
  }
}