{
  "contractName": "UniversityRegistry",
  "abi": [
    {
      "inputs": [],
      "payable": false,
      "stateMutability": "nonpayable",
      "type": "constructor"
    },
    {
      "anonymous": false,
      "inputs": [
        {
          "indexed": true,
          "internalType": "address",
          "name": "universityAddress",
          "type": "address"
        },
        {
          "indexed": false,
          "internalType": "string",
          "name": "name",
          "type": "string"
        }
      ],
      "name": "UniversityAdded",
      "type": "event"
    },
    {
      "anonymous": false,
      "inputs": [
        {
          "indexed": true,
          "internalType": "address",
          "name": "universityAddress",
          "type": "address"
        }
      ],
      "name": "UniversityRevoked",
      "type": "event"
    },
    {
      "constant": true,
      "inputs": [],
      "name": "owner",
      "outputs": [
        {
          "internalType": "address",
          "name": "",
          "type": "address"
        }
      ],
      "payable": false,
      "stateMutability": "view",
      "type": "function"
    },
    {
      "constant": true,
      "inputs": [
        {
          "internalType": "address",
          "name": "",
          "type": "address"
        }
      ],
      "name": "universities",
      "outputs": [
        {
          "internalType": "string",
          "name": "name",
          "type": "string"
        },
        {
          "internalType": "address",
          "name": "universityAddress",
          "type": "address"
        },
        {
          "internalType": "bool",
          "name": "exists",
          "type": "bool"
        }
      ],
      "payable": false,
      "stateMutability": "view",
      "type": "function"
    },
    {
      "constant": false,
      "inputs": [
        {
          "internalType": "address",
          "name": "_universityAddress",
          "type": "address"
        },
        {
          "internalType": "string",
          "name": "_name",
          "type": "string"
        }
      ],
      "name": "addUniversity",
      "outputs": [],
      "payable": false,
      "stateMutability": "nonpayable",
      "type": "function"
    },
    {
      "constant": false,
      "inputs": [
        {
          "internalType": "address",
          "name": "_universityAddress",
          "type": "address"
        }
      ],
      "name": "revokeUniversity",
      "outputs": [],
      "payable": false,
      "stateMutability": "nonpayable",
      "type": "function"
    },
    {
      "constant": true,
      "inputs": [
        {
          "internalType": "address",
          "name": "_addr",
          "type": "address"
        }
      ],
      "name": "isUniversity",
      "outputs": [
        {
          "internalType": "bool",
          "name": "",
          "type": "bool"
        },
        {
          "internalType": "string",
          "name": "",
          "type": "string"
        }
      ],
      "payable": false,
      "stateMutability": "view",
      "type": "function"
    }
  ],
  "bytecode": "0x608060405234801561001057600080fd5b50600080546001600160a01b031916331790556108f8806100326000396000f3fe608060405234801561001057600080fd5b50600436106100575760003560e01c80638da5cb5b1461005c578063a908dc6214610080578063b9730cde14610138578063e4ee8755146101e1578063f099556014610207575b600080fd5b6100646102c9565b604080516001600160a01b039092168252519081900360200190f35b6101366004803603604081101561009657600080fd5b6001600160a01b0382351691908101906040810160208201356401000000008111156100c157600080fd5b8201836020820111156100d357600080fd5b803590602001918460018302840111640100000000831117156100f557600080fd5b91908080601f0160208091040260200160405190810160405280939291908181526020018383808284376000920191909152509295506102d8945050505050565b005b61015e6004803603602081101561014e57600080fd5b50356001600160a01b03166104bd565b604051808315151515815260200180602001828103825283818151815260200191508051906020019080838360005b838110156101a557818101518382015260200161018d565b50505050905090810190601f1680156101d25780820380516001836020036101000a031916815260200191505b50935050505060405180910390f35b610136600480360360208110156101f757600080fd5b50356001600160a01b03166105b3565b61022d6004803603602081101561021d57600080fd5b50356001600160a01b03166106e0565b6040518080602001846001600160a01b03166001600160a01b0316815260200183151515158152602001828103825285818151815260200191508051906020019080838360005b8381101561028c578181015183820152602001610274565b50505050905090810190601f1680156102b95780820380516001836020036101000a031916815260200191505b5094505050505060405180910390f35b6000546001600160a01b031681565b6000546001600160a01b031633146103215760405162461bcd60e51b815260040180806020018281038252602981526020018061089b6029913960400191505060405180910390fd5b6001600160a01b03821660009081526001602081905260409091200154600160a01b900460ff161561039a576040805162461bcd60e51b815260206004820152601860248201527f556e6976657273697465207a6174656e206b617969746c690000000000000000604482015290519081900360640190fd5b604080516060810182528281526001600160a01b038416602080830182905260018385018190526000928352815292902081518051929391926103e09284920190610798565b5060208281015160019290920180546040948501516001600160a01b03199091166001600160a01b039485161760ff60a01b1916600160a01b9115159190910217905582518181528451818301528451928616937fec1e06e5bcd47cc0ab9791be5856f0e0bab5a2be711f3f3fd979d4c694c7c1f993869383928301919085019080838360005b8381101561047f578181015183820152602001610467565b50505050905090810190601f1680156104ac5780820380516001836020036101000a031916815260200191505b509250505060405180910390a25050565b600060606104c9610816565b6001600160a01b0384166000908152600160208181526040928390208351815460029481161561010002600019011693909304601f8101839004909202830160809081019094526060830182815292939092849290918491908401828280156105735780601f1061054857610100808354040283529160200191610573565b820191906000526020600020905b81548152906001019060200180831161055657829003601f168201915b5050509183525050600191909101546001600160a01b0381166020830152600160a01b900460ff1615156040918201528101519051909590945092505050565b6000546001600160a01b031633146105fc5760405162461bcd60e51b815260040180806020018281038252602981526020018061089b6029913960400191505060405180910390fd5b6001600160a01b03811660009081526001602081905260409091200154600160a01b900460ff16610674576040805162461bcd60e51b815260206004820152601860248201527f556e6976657273697465206b617969746c6920646567696c0000000000000000604482015290519081900360640190fd5b6001600160a01b0381166000908152600160205260408120906106978282610836565b5060010180546001600160a81b03191690556040516001600160a01b038216907f13ac9aa2c7e4f68cb10b8d7ba445383b32e9d48311cba0e322f9f932ad8872b990600090a250565b60016020818152600092835260409283902080548451600294821615610100026000190190911693909304601f81018390048302840183019094528383529283918301828280156107725780601f1061074757610100808354040283529160200191610772565b820191906000526020600020905b81548152906001019060200180831161075557829003601f168201915b505050600190930154919250506001600160a01b0381169060ff600160a01b9091041683565b828054600181600116156101000203166002900490600052602060002090601f016020900481019282601f106107d957805160ff1916838001178555610806565b82800160010185558215610806579182015b828111156108065782518255916020019190600101906107eb565b5061081292915061087d565b5090565b604080516060808201835281526000602082018190529181019190915290565b50805460018160011615610100020316600290046000825580601f1061085c575061087a565b601f01602090049060005260206000209081019061087a919061087d565b50565b61089791905b808211156108125760008155600101610883565b9056fe536164656365206b6f6e74726174207361686962692062752069736c656d69207961706162696c6972a265627a7a72315820124b2b6ebb34a138cd8db2e437f47af0b540aca730106eebdbd361548e119e6664736f6c63430005100032",
  "source": "// SPDX-License-Identifier: MIT\r\npragma solidity >=0.4.22 <0.9.0;\r\n\r\ncontract UniversityRegistry {\r\n    address public owner;\r\n    \r\n    struct University {\r\n        string name;\r\n        address universityAddress;\r\n        bool exists;\r\n    }\r\n    \r\n    mapping(address => University) public universities;\r\n    \r\n    event UniversityAdded(address indexed universityAddress, string name);\r\n    event UniversityRevoked(address indexed universityAddress);\r\n    \r\n    constructor() public {\r\n        owner = msg.sender;\r\n    }\r\n    \r\n    modifier onlyOwner(){\r\n        require(msg.sender == owner, \"Sadece kontrat sahibi bu islemi yapabilir\");\r\n        _;\r\n    }\r\n\r\n    function addUniversity(address _universityAddress, string memory _name) public onlyOwner {\r\n        require(!universities[_universityAddress].exists, \"Universite zaten kayitli\");\r\n        universities[_universityAddress] = University({\r\n            name: _name,\r\n            universityAddress: _universityAddress,\r\n            exists: true\r\n        });\r\n        emit UniversityAdded(_universityAddress, _name);\r\n    }\r\n\r\n    function revokeUniversity(address _universityAddress) public onlyOwner {\r\n        require(universities[_universityAddress].exists, \"Universite kayitli degil\");\r\n        delete universities[_universityAddress];\r\n        emit UniversityRevoked(_universityAddress);\r\n    }\r\n\r\n    function isUniversity(address _addr) public view returns (bool, string memory) {\r\n        University memory uni = universities[_addr];\r\n        return (uni.exists, uni.name);\r\n    }\r\n}\r\n",
  "sourcePath": "C:\\Users\\Said\\Desktop\\Bitirme Projesi\\contracts\\UniversityRegistry.sol",
  "compiler": {
    "name": "solc",
    "version": "0.5.16+commit.9c3226ce.Emscripten.clang"
  },
  "schemaVersion": "3.4.16",
  "updatedAt": "2025-04-26T09:00:24.535Z",
  "networkType": "ethereum",
  "devdoc": {
    "methods": {}
  },
  "userdoc": {
    "methods": {}
  }
}