{
  "contractName": "UniversityRegistry",
  "abi": [
    {
      "inputs": [],
      "payable": false,
      "stateMutability": "nonpayable",
      "type": "constructor"
    },
    {
      "anonymous": false,
      "inputs": [
        {
          "indexed": true,
          "internalType": "address",
          "name": "universityAddress",
          "type": "address"
        },
        {
          "indexed": false,
          "internalType": "string",
          "name": "name",
          "type": "string"
        }
      ],
      "name": "UniversityAdded",
      "type": "event"
    },
    {
      "anonymous": false,
      "inputs": [
        {
          "indexed": true,
          "internalType": "address",
          "name": "universityAddress",
          "type": "address"
        }
      ],
      "name": "UniversityRevoked",
      "type": "event"
    },
    {
      "constant": true,
      "inputs": [],
      "name": "owner",
      "outputs": [
        {
          "internalType": "address",
          "name": "",
          "type": "address"
        }
      ],
      "payable": false,
      "stateMutability": "view",
      "type": "function"
    },
    {
      "constant": true,
      "inputs": [
        {
          "internalType": "address",
          "name": "",
          "type": "address"
        }
      ],
      "name": "universities",
      "outputs": [
        {
          "internalType": "string",
          "name": "name",
          "type": "string"
        },
        {
          "internalType": "address",
          "name": "universityAddress",
          "type": "address"
        },
        {
          "internalType": "bool",
          "name": "exists",
          "type": "bool"
        }
      ],
      "payable": false,
      "stateMutability": "view",
      "type": "function"
    },
    {
      "constant": false,
      "inputs": [
        {
          "internalType": "address",
          "name": "_universityAddress",
          "type": "address"
        },
        {
          "internalType": "string",
          "name": "_name",
          "type": "string"
        }
      ],
      "name": "addUniversity",
      "outputs": [],
      "payable": false,
      "stateMutability": "nonpayable",
      "type": "function"
    },
    {
      "constant": false,
      "inputs": [
        {
          "internalType": "address",
          "name": "_universityAddress",
          "type": "address"
        }
      ],
      "name": "revokeUniversity",
      "outputs": [],
      "payable": false,
      "stateMutability": "nonpayable",
      "type": "function"
    },
    {
      "constant": true,
      "inputs": [
        {
          "internalType": "address",
          "name": "_addr",
          "type": "address"
        }
      ],
      "name": "isUniversity",
      "outputs": [
        {
          "internalType": "bool",
          "name": "",
          "type": "bool"
        }
      ],
      "payable": false,
      "stateMutability": "view",
      "type": "function"
    }
  ],
  "bytecode": "0x608060405234801561001057600080fd5b50600080546001600160a01b0319163317905561079c806100326000396000f3fe608060405234801561001057600080fd5b50600436106100575760003560e01c80638da5cb5b1461005c578063a908dc6214610080578063b9730cde14610138578063e4ee875514610172578063f099556014610198575b600080fd5b61006461025a565b604080516001600160a01b039092168252519081900360200190f35b6101366004803603604081101561009657600080fd5b6001600160a01b0382351691908101906040810160208201356401000000008111156100c157600080fd5b8201836020820111156100d357600080fd5b803590602001918460018302840111640100000000831117156100f557600080fd5b91908080601f016020809104026020016040519081016040528093929190818152602001838380828437600092019190915250929550610269945050505050565b005b61015e6004803603602081101561014e57600080fd5b50356001600160a01b031661044e565b604080519115158252519081900360200190f35b6101366004803603602081101561018857600080fd5b50356001600160a01b0316610477565b6101be600480360360208110156101ae57600080fd5b50356001600160a01b03166105a4565b6040518080602001846001600160a01b03166001600160a01b0316815260200183151515158152602001828103825285818151815260200191508051906020019080838360005b8381101561021d578181015183820152602001610205565b50505050905090810190601f16801561024a5780820380516001836020036101000a031916815260200191505b5094505050505060405180910390f35b6000546001600160a01b031681565b6000546001600160a01b031633146102b25760405162461bcd60e51b815260040180806020018281038252602981526020018061073f6029913960400191505060405180910390fd5b6001600160a01b03821660009081526001602081905260409091200154600160a01b900460ff161561032b576040805162461bcd60e51b815260206004820152601860248201527f556e6976657273697465207a6174656e206b617969746c690000000000000000604482015290519081900360640190fd5b604080516060810182528281526001600160a01b03841660208083018290526001838501819052600092835281529290208151805192939192610371928492019061065c565b5060208281015160019290920180546040948501516001600160a01b03199091166001600160a01b039485161760ff60a01b1916600160a01b9115159190910217905582518181528451818301528451928616937fec1e06e5bcd47cc0ab9791be5856f0e0bab5a2be711f3f3fd979d4c694c7c1f993869383928301919085019080838360005b838110156104105781810151838201526020016103f8565b50505050905090810190601f16801561043d5780820380516001836020036101000a031916815260200191505b509250505060405180910390a25050565b6001600160a01b031660009081526001602081905260409091200154600160a01b900460ff1690565b6000546001600160a01b031633146104c05760405162461bcd60e51b815260040180806020018281038252602981526020018061073f6029913960400191505060405180910390fd5b6001600160a01b03811660009081526001602081905260409091200154600160a01b900460ff16610538576040805162461bcd60e51b815260206004820152601860248201527f556e6976657273697465206b617969746c6920646567696c0000000000000000604482015290519081900360640190fd5b6001600160a01b03811660009081526001602052604081209061055b82826106da565b5060010180546001600160a81b03191690556040516001600160a01b038216907f13ac9aa2c7e4f68cb10b8d7ba445383b32e9d48311cba0e322f9f932ad8872b990600090a250565b60016020818152600092835260409283902080548451600294821615610100026000190190911693909304601f81018390048302840183019094528383529283918301828280156106365780601f1061060b57610100808354040283529160200191610636565b820191906000526020600020905b81548152906001019060200180831161061957829003601f168201915b505050600190930154919250506001600160a01b0381169060ff600160a01b9091041683565b828054600181600116156101000203166002900490600052602060002090601f016020900481019282601f1061069d57805160ff19168380011785556106ca565b828001600101855582156106ca579182015b828111156106ca5782518255916020019190600101906106af565b506106d6929150610721565b5090565b50805460018160011615610100020316600290046000825580601f10610700575061071e565b601f01602090049060005260206000209081019061071e9190610721565b50565b61073b91905b808211156106d65760008155600101610727565b9056fe536164656365206b6f6e74726174207361686962692062752069736c656d69207961706162696c6972a265627a7a723158207d3a4516f888dc4918352b5d52841af77a874b47286b34146e5f596367fde1a364736f6c63430005100032",
  "source": "// SPDX-License-Identifier: MIT\r\npragma solidity >=0.4.22 <0.9.0;\r\n\r\n/*\r\n    Üniversite Kayıt Kontratı:\r\n    - Bu kontrat, sistemde üniversitelerin kaydını tutar.\r\n    - Sadece kontrat sahibi (deploy eden) üniversite ekleyebilir.\r\n*/\r\ncontract UniversityRegistry {\r\n    // Kontrat sahibi\r\n    address public owner;\r\n    \r\n    // Üniversite bilgilerini tutan yapı\r\n    struct University {\r\n        string name;\r\n        address universityAddress;\r\n        bool exists;\r\n    }\r\n    \r\n    // Üniversiteleri adreslerine göre saklayan mapping\r\n    mapping(address => University) public universities;\r\n    \r\n    // Üniversite ekleme eventi\r\n    event UniversityAdded(address indexed universityAddress, string name);\r\n    event UniversityRevoked(address indexed universityAddress);\r\n    \r\n    // Kontrat deploy edildiğinde deploy eden kişi sahibi olur.\r\n    constructor() public {\r\n        owner = msg.sender;\r\n    }\r\n    \r\n    // Sadece kontrat sahibinin işlem yapabilmesi için modifier\r\n    modifier onlyOwner(){\r\n        require(msg.sender == owner, \"Sadece kontrat sahibi bu islemi yapabilir\");\r\n        _;\r\n    }\r\n    \r\n    // Yeni üniversite ekleme fonksiyonu\r\n    function addUniversity(address _universityAddress, string memory _name) public onlyOwner {\r\n        require(!universities[_universityAddress].exists, \"Universite zaten kayitli\");\r\n        universities[_universityAddress] = University({\r\n            name: _name,\r\n            universityAddress: _universityAddress,\r\n            exists: true\r\n        });\r\n        emit UniversityAdded(_universityAddress, _name);\r\n    }\r\n    \r\n    // Kayıtlı üniversiteyi sistemden kaldırma fonksiyonu\r\n    function revokeUniversity(address _universityAddress) public onlyOwner {\r\n        require(universities[_universityAddress].exists, \"Universite kayitli degil\");\r\n        delete universities[_universityAddress];\r\n        emit UniversityRevoked(_universityAddress);\r\n    }\r\n\r\n    // Bir adresin kayıtlı üniversite olup olmadığını kontrol eder\r\n    function isUniversity(address _addr) public view returns(bool) {\r\n        return universities[_addr].exists;\r\n    }\r\n}\r\n",
  "sourcePath": "C:\\Users\\Said\\Desktop\\Bitirme Projesi\\contracts\\UniversityRegistry.sol",
  "compiler": {
    "name": "solc",
    "version": "0.5.16+commit.9c3226ce.Emscripten.clang"
  },
  "schemaVersion": "3.4.16",
  "updatedAt": "2025-04-05T10:06:37.753Z",
  "networkType": "ethereum",
  "devdoc": {
    "methods": {}
  },
  "userdoc": {
    "methods": {}
  }
}